{
  "abi": [
    {
      "inputs": [
        {
          "internalType": "uint256[2]",
          "name": "a",
          "type": "uint256[2]"
        },
        {
          "internalType": "uint256[2]",
          "name": "b",
          "type": "uint256[2]"
        },
        {
          "internalType": "uint256[5]",
          "name": "curve",
          "type": "uint256[5]"
        }
      ],
      "name": "Mon",
      "outputs": [
        {
          "internalType": "uint256[2]",
          "name": "r",
          "type": "uint256[2]"
        }
      ],
      "stateMutability": "nonpayable",
      "type": "function"
    },
    {
      "inputs": [
        {
          "internalType": "uint256",
          "name": "n0",
          "type": "uint256"
        },
        {
          "internalType": "uint256",
          "name": "n1",
          "type": "uint256"
        }
      ],
      "name": "calc_new_curve",
      "outputs": [
        {
          "components": [
            {
              "internalType": "uint256[5]",
              "name": "params",
              "type": "uint256[5]"
            },
            {
              "internalType": "bool",
              "name": "flag",
              "type": "bool"
            }
          ],
          "internalType": "struct Montgomery.Curve",
          "name": "",
          "type": "tuple"
        }
      ],
      "stateMutability": "nonpayable",
      "type": "function"
    },
    {
      "inputs": [
        {
          "internalType": "bytes",
          "name": "",
          "type": "bytes"
        }
      ],
      "name": "curves",
      "outputs": [
        {
          "internalType": "bool",
          "name": "flag",
          "type": "bool"
        }
      ],
      "stateMutability": "view",
      "type": "function"
    },
    {
      "inputs": [
        {
          "internalType": "uint256",
          "name": "n0",
          "type": "uint256"
        },
        {
          "internalType": "uint256",
          "name": "n1",
          "type": "uint256"
        }
      ],
      "name": "find_curve",
      "outputs": [
        {
          "internalType": "uint256[5]",
          "name": "curve",
          "type": "uint256[5]"
        }
      ],
      "stateMutability": "nonpayable",
      "type": "function"
    },
    {
      "inputs": [
        {
          "internalType": "uint256",
          "name": "a0",
          "type": "uint256"
        },
        {
          "internalType": "uint256",
          "name": "a1",
          "type": "uint256"
        },
        {
          "internalType": "uint256",
          "name": "b0",
          "type": "uint256"
        },
        {
          "internalType": "uint256",
          "name": "b1",
          "type": "uint256"
        },
        {
          "internalType": "uint256[5]",
          "name": "curve",
          "type": "uint256[5]"
        }
      ],
      "name": "mont_mulmod",
      "outputs": [
        {
          "internalType": "uint256",
          "name": "",
          "type": "uint256"
        },
        {
          "internalType": "uint256",
          "name": "",
          "type": "uint256"
        }
      ],
      "stateMutability": "nonpayable",
      "type": "function"
    },
    {
      "inputs": [],
      "name": "set_curves",
      "outputs": [],
      "stateMutability": "nonpayable",
      "type": "function"
    },
    {
      "inputs": [
        {
          "internalType": "uint256[2]",
          "name": "a",
          "type": "uint256[2]"
        },
        {
          "internalType": "uint256[5]",
          "name": "curve",
          "type": "uint256[5]"
        }
      ],
      "name": "to_mont",
      "outputs": [
        {
          "internalType": "uint256[2]",
          "name": "",
          "type": "uint256[2]"
        }
      ],
      "stateMutability": "nonpayable",
      "type": "function"
    },
    {
      "inputs": [
        {
          "internalType": "uint256[2]",
          "name": "a",
          "type": "uint256[2]"
        },
        {
          "internalType": "uint256[5]",
          "name": "curve",
          "type": "uint256[5]"
        }
      ],
      "name": "to_norm",
      "outputs": [
        {
          "internalType": "uint256[2]",
          "name": "",
          "type": "uint256[2]"
        }
      ],
      "stateMutability": "nonpayable",
      "type": "function"
    },
    {
      "inputs": [],
      "name": "uint512",
      "outputs": [
        {
          "internalType": "contract Uint512",
          "name": "",
          "type": "address"
        }
      ],
      "stateMutability": "view",
      "type": "function"
    }
  ],
  "bytecode": "61012060405261010060808181527f6e749e5b503b112ac0db8b05c83ad16a4af1f8ac73c6c555ecaed44677f7f28d60a052600060c0527f67d7afac65649e8268bfc2dc2297e1496da5b0aba16fb01066ff43a234713e8560e05260019091526200006f9060029060056200056c565b506040518060a0016040528061020081526020017fe23c04dc39c8c930929e0924887fab48561500cb39a9b66bb03174e56db6ba9081526020017f3057350e3201bb3680bc9d923a08f9a9d70dfcccc3dd062f0cc44723bcc3697981526020017f3d86f5322949b920af0456575d456e174c82666f7bb16c1e50bc7d084a21aae181526020017fc291fbb5ae9c1e83f29f69d34ae1cb8a6d70de8fa5e5a4cb7f17bf1c5533cda981525060079060056200012b9291906200056c565b506040518060a0016040528061020081526020017fa06b76a2bae6fc8680b08b27e9cebbc7b55cd33800ab10e6546775b92106e97981526020017fb66ae6c00bebd6c3ee028bf9d8ed3314bab8be5dd7b1651dc7433579e382956f81526020017fccff552d202458521f1d429025bb495fb37706a5a530c4bc02ccc1665d51f22381526020017f025169b543b2963edaee66a23e4cd5a9526e51f000112cd25a4cf4d9022aa989815250600c906005620001e79291906200056c565b506040518060a0016040528061020081526020017fb1532b08f1e25e5cc55538cf997acac4267d56905313f38b3163da9749d3cb8b81526020017f21c65cda4cadccc0f96232d7a52b18fe9f96043308eeb401c385980eb887a3f981526020017f9297f6e5632c895c82d4c0daebb2fb229987c4851656f7d3c07d62492cbac26b81526020017f7a2fb684ff4de946896af19d2ea094e16cb6299541678cea2c3067b7148187c78152506011906005620002a39291906200056c565b506040518060a0016040528061010081526020017f0fb1fbc48b0f0eb4d0593365f9384bcd7556091c4805caa457cb446240dd17108152602001600081526020017f5260f9d578e2604002f9ff5f350498dfaa48059b4f8d1109035bdd1aeafdb0a9815260200160018152506016906005620003219291906200056c565b506040518060a0016040528061020081526020017f542f8f3fa490666ad016086ec2d4f903e79280282d956fcae58fa18ee6ca4eb681526020017f394c72054d8503be8910352f3bea2192314e0a57f445b20e04f77045db49adc981526020017fa741bfb17f50bc09f931fcfca507f4363767eb6752418a840ed9d8e0b6624e1b81526020017fe5ca44e2a518d364dfdea839b87a0debdfef40d8420f3680a2e06451b9269fcc815250601b906005620003dd9291906200056c565b506040518060a0016040528061010081526020017f551fe9cb451179dbf74885d08a3714c6fb07f8222e76dd529ac2d7858e79a4698152602001600081526020017fc04b107ff7e9db33bccb5ba48253457bc84a073d7cf985b09ee6ea0b57c7da658152602001600081525060209060056200045b9291906200056c565b506040518060a0016040528061010081526020017f09d1d2c4e50824664a2e7e2f6882cf102a3104a7ea43e85529b721f4e6cd78238152602001600081526020017f72a15d7fcb9bae40ee0e6fd42c6930fa4b51be0a5c35b7edca89614990611a91815260200160018152506025906005620004d99291906200056c565b506040518060a0016040528061010081526020017f7aa61b49a49d4759c67e5d0ee96e8ed304fda8694afda24be94faab66aba180e8152602001600081526020017f74f56b1c98a76d0c091e6cb4728e451e500f146f349d7d87a1c6af0a552f757781526020016001815250602a906005620005579291906200056c565b503480156200056557600080fd5b50620005c6565b82600581019282156200059d579160200282015b828111156200059d57825182559160200191906001019062000580565b50620005ab929150620005af565b5090565b5b80821115620005ab5760008155600101620005b0565b6116ff80620005d66000396000f3fe608060405234801561001057600080fd5b50600436106100935760003560e01c8063b11095c911610066578063b11095c91461010e578063dd9eca5d14610136578063e6e35e8214610156578063e84c31e314610176578063f8e8ff231461018057600080fd5b806317f0e8c81461009857806348891b31146100c857806349a9910e146100e8578063a294dfb0146100fb575b600080fd5b6000546100ab906001600160a01b031681565b6040516001600160a01b0390911681526020015b60405180910390f35b6100db6100d63660046113d5565b6101c1565b6040516100bf919061140a565b6100db6100f63660046113d5565b61021e565b6100db61010936600461143b565b610243565b61012161011c366004611482565b61091d565b604080519283526020830191909152016100bf565b6101496101443660046114cd565b610999565b6040516100bf91906114ef565b6101696101643660046114cd565b6109fd565b6040516100bf919061152e565b61017e610af0565b005b6101b161018e366004611556565b805160208183018101805160018252928201919093012091526005015460ff1681565b60405190151581526020016100bf565b6101c9611239565b610215836040518060400160405280856002600581106101eb576101eb611607565b602002015181526020018560036005811061020857610208611607565b6020020151905284610243565b90505b92915050565b610226611239565b610215836040518060400160405280600181526020016000815250845b61024b611239565b600060405180604001604052808460006005811061026b5761026b611607565b602002015181526020018460016005811061028857610288611607565b602002015190529050610299611257565b6000808080805b8260021461076c575060009050805b816002146104c4576000546001600160a01b0316637f36876e8c84600281106102da576102da611607565b60200201518c86600281106102f1576102f1611607565b60200201516040516001600160e01b031960e085901b168152600481019290925260248201526044016040805180830381865afa158015610336573d6000803e3d6000fd5b505050506040513d601f19601f8201168201806040525081019061035a919061161d565b6000549096509094506001600160a01b03166314d6088285878961037e8789611657565b6004811061038e5761038e611607565b60200201516040516001600160e01b031960e086901b168152600481019390935260248301919091526044820152600060648201526084016040805180830381865afa1580156103e2573d6000803e3d6000fd5b505050506040513d601f19601f82011682018060405250810190610406919061161d565b60008054604051630a6b044160e11b815260048101859052602481018490526044810186905260648101929092529197509195506001600160a01b0316906314d60882906084016040805180830381865afa158015610469573d6000803e3d6000fd5b505050506040513d601f19601f8201168201806040525081019061048d919061161d565b95509350838661049d8486611657565b600481106104ad576104ad611607565b602002015250836104bd8261166a565b91506102af565b80866104d1856002611657565b600481106104e1576104e1611607565b602002018181516104f29190611657565b905250608089015160009087856004811061050f5761050f611607565b602002015161051e9190611683565b905060009150600092505b82600214610729576000546001600160a01b0316637f36876e828a866002811061055557610555611607565b60200201516040516001600160e01b031960e085901b168152600481019290925260248201526044016040805180830381865afa15801561059a573d6000803e3d6000fd5b505050506040513d601f19601f820116820180604052508101906105be919061161d565b6000549097509095506001600160a01b03166314d6088286888a6105e2888a611657565b600481106105f2576105f2611607565b60200201516040516001600160e01b031960e086901b168152600481019390935260248301919091526044820152600060648201526084016040805180830381865afa158015610646573d6000803e3d6000fd5b505050506040513d601f19601f8201168201806040525081019061066a919061161d565b60008054604051630a6b044160e11b815260048101859052602481018490526044810187905260648101929092529198509196506001600160a01b0316906314d60882906084016040805180830381865afa1580156106cd573d6000803e3d6000fd5b505050506040513d601f19601f820116820180604052508101906106f1919061161d565b9650945084876107018587611657565b6004811061071157610711611607565b60200201528591506107228361166a565b9250610529565b8187610736866002611657565b6004811061074657610746611607565b602002018181516107579190611657565b90525061076590508361166a565b92506102a0565b610774611239565b60008080600095505b8560021461083f57828b876002811061079857610798611607565b60200201516107a79190611657565b8a87600481106107b9576107b9611607565b602002015111156107cc575060006107d0565b5060015b828b87600281106107e3576107e3611607565b60200201518b88600481106107fa576107fa611607565b6020020151030391508184876002811061081657610816611607565b60200201528061082757600061082a565b60015b60ff1692506108388661166a565b955061077d565b6040805180820190915260008082526000196020830152849003610879575060408051808201909152600081526000196020820152610891565b50604080518082019091526000198152600060208201525b600096505b8660021461090a578487600281106108b0576108b0611607565b60200201518160016020020151168b6108ca896002611657565b600481106108da576108da611607565b6020020151825116178d88600281106108f5576108f5611607565b60200201526109038761166a565b9650610896565b5050505050505050505050509392505050565b600080600061094060405180604001604052808a815260200189815250856101c1565b90506000610962604051806040016040528089815260200188815250866101c1565b90506000610971838388610243565b9050600061097f828861021e565b8051602090910151909c909b509950505050505050505050565b6109a1611275565b6109a9611295565b826000036109bb5761010081526109c1565b61020081525b60006020808301829052604080840183905260608401839052608084019290925281518083019092529181526001918101919091529392505050565b610a05611295565b600060018484604051602001610a25929190918252602082015260400190565b60408051601f1981840301815290829052610a3f9161169a565b9081526040805191829003602001822060e08301825290829081018260058282826020028201915b815481526020019060010190808311610a675750505091835250506005919091015460ff1615156020918201528101519091501515600003610ab057610aad8484610999565b90505b6040805160a08101825285815260208082018690528351015181830152825190910151606082015281516080820190600360200201519052949350505050565b6040805160e0810182529081908101600260058282826020028201915b815481526020019060010190808311610b0d57505050918352505060016020918201819052604080517f8000000000000000000000000000000150fe8a1892976154c59cfc193accf5b3938101939093526000908301529060600160408051601f1981840301815290829052610b829161169a565b9081526040519081900360200190208151610ba090829060056112b3565b50602091909101516005918201805460ff19169115159190911790556040805160e08101808352909283928301916007919082845b815481526020019060010190808311610bd557505050505081526020016001151581525060017fa82f2d7ecb1dbac719905c5eecc423f1d86e25edbe23c595d644aaf187e6e6df7f4531acd1fe0023c7550d267b6b2fee80922b14b2ffb90f04d4eb7c09b5d2d15d604051602001610c57929190918252602082015260400190565b60408051601f1981840301815290829052610c719161169a565b9081526040519081900360200190208151610c8f90829060056112b3565b50602091909101516005918201805460ff19169115159190911790556040805160e0810180835290928392830191600c919082845b815481526020019060010190808311610cc457505050505081526020016001151581525060017f27e69532f48d89116ff22b8d4e0560609b4b38abfad2b85dcacdb1411f10b275600019604051602001610d28929190918252602082015260400190565b60408051601f1981840301815290829052610d429161169a565b9081526040519081900360200190208151610d6090829060056112b3565b50602091909101516005918201805460ff19169115159190911790556040805160e08101808352909283928301916011919082845b815481526020019060010190808311610d9557505050505081526020016001151581525060017f49a1ec142565a545acfdb77bd9d40cfa8b996712101bea0ec6346c54374f25bd6001600160ff1b01604051602001610dfe929190918252602082015260400190565b60408051601f1981840301815290829052610e189161169a565b9081526040519081900360200190208151610e3690829060056112b3565b50602091909101516005918201805460ff19169115159190911790556040805160e08101808352909283928301916016919082845b815481526020019060010190808311610e6b57505050918352505060016020918201819052604080517f400000000000000000000000000000000fd8cddfc87b6635c115af556c360c67938101939093526000908301529060600160408051601f1981840301815290829052610ee09161169a565b9081526040519081900360200190208151610efe90829060056112b3565b50602091909101516005918201805460ff19169115159190911790556040805160e0810180835290928392830191601b919082845b815481526020019060010190808311610f3357505050505081526020016001151581525060017fc98cdba46506ab004c33a9ff5147502cc8eda9e7a769a12694623cef47f023ed6001600160fe1b03604051602001610f9c929190918252602082015260400190565b60408051601f1981840301815290829052610fb69161169a565b9081526040519081900360200190208151610fd490829060056112b3565b506020918201516005918201805460ff19169115159190911790556040805160e081018083529093849392840192909182845b81548152602001906001019080831161100757505050918352505060016020918201819052604080516f939eef8f66a52effba7be4f6489e476c19938101939093526000908301529060600160408051601f198184030181529082905261106d9161169a565b908152604051908190036020019020815161108b90829060056112b3565b50602091909101516005918201805460ff19169115159190911790556040805160e08101808352909283928301916025919082845b8154815260200190600101908083116110c057505050918352505060016020918201819052604080517f800000000000000000000000000000015f700cfff1a624e5e497161bcc8a198f938101939093526000908301529060600160408051601f19818403018152908290526111359161169a565b908152604051908190036020019020815161115390829060056112b3565b50602091909101516005918201805460ff19169115159190911790556040805160e0810180835290928392830191602a919082845b81548152602001906001019080831161118857505050918352505060016020918201819052604080517f9b9f605f5a858107ab1ec85e6b41c8aa582ca3511eddfb74f02f3a6598980bb9938101939093526000908301529060600160408051601f19818403018152908290526111fd9161169a565b908152604051908190036020019020815161121b90829060056112b3565b50602091909101516005909101805460ff1916911515919091179055565b60405180604001604052806002906020820280368337509192915050565b60405180608001604052806004906020820280368337509192915050565b6040518060400160405280611288611295565b8152600060209091015290565b6040518060a001604052806005906020820280368337509192915050565b82600581019282156112e1579160200282015b828111156112e15782518255916020019190600101906112c6565b506112ed9291506112f1565b5090565b5b808211156112ed57600081556001016112f2565b634e487b7160e01b600052604160045260246000fd5b600082601f83011261132d57600080fd5b6040516040810181811067ffffffffffffffff8211171561135057611350611306565b806040525080604084018581111561136757600080fd5b845b81811015611381578035835260209283019201611369565b509195945050505050565b600082601f83011261139d57600080fd5b60405160a0810181811067ffffffffffffffff821117156113c0576113c0611306565b6040528060a084018581111561136757600080fd5b60008060e083850312156113e857600080fd5b6113f2848461131c565b9150611401846040850161138c565b90509250929050565b60408101818360005b6002811015611432578151835260209283019290910190600101611413565b50505092915050565b6000806000610120848603121561145157600080fd5b61145b858561131c565b925061146a856040860161131c565b9150611479856080860161138c565b90509250925092565b6000806000806000610120868803121561149b57600080fd5b853594506020860135935060408601359250606086013591506114c1876080880161138c565b90509295509295909350565b600080604083850312156114e057600080fd5b50508035926020909101359150565b815160c08201908260005b60058110156115195782518252602092830192909101906001016114fa565b5050506020830151151560a083015292915050565b60a08101818360005b6005811015611432578151835260209283019290910190600101611537565b60006020828403121561156857600080fd5b813567ffffffffffffffff8082111561158057600080fd5b818401915084601f83011261159457600080fd5b8135818111156115a6576115a6611306565b604051601f8201601f19908116603f011681019083821181831017156115ce576115ce611306565b816040528281528760208487010111156115e757600080fd5b826020860160208301376000928101602001929092525095945050505050565b634e487b7160e01b600052603260045260246000fd5b6000806040838503121561163057600080fd5b505080516020909101519092909150565b634e487b7160e01b600052601160045260246000fd5b8082018082111561021857610218611641565b60006001820161167c5761167c611641565b5060010190565b808202811582820484141761021857610218611641565b6000825160005b818110156116bb57602081860181015185830152016116a1565b50600092019182525091905056fea2646970667358221220ca38ceb966d9c9f94e250451a6f3154fec94ecf25f422b38dc2548e171dd8e6464736f6c63430008110033",
  "bytecodeSha1": "396a4f5dfc2097a204ece57c30f45ff26bd3e9a4",
  "compiler": {
    "evm_version": "istanbul",
    "optimizer": {
      "enabled": true,
      "runs": 200
    },
    "version": "0.8.17+commit.8df45f5f"
  },
  "contractName": "Montgomery",
  "language": "Solidity",
  "natspec": {
    "kind": "dev",
    "methods": {},
    "version": 1
  },
  "opcodes": "PUSH1 0x80 PUSH1 0x40 MSTORE CALLVALUE DUP1 ISZERO PUSH2 0x10 JUMPI PUSH1 0x0 DUP1 REVERT JUMPDEST POP PUSH1 0x4 CALLDATASIZE LT PUSH2 0x93 JUMPI PUSH1 0x0 CALLDATALOAD PUSH1 0xE0 SHR DUP1 PUSH4 0xB11095C9 GT PUSH2 0x66 JUMPI DUP1 PUSH4 0xB11095C9 EQ PUSH2 0x10E JUMPI DUP1 PUSH4 0xDD9ECA5D EQ PUSH2 0x136 JUMPI DUP1 PUSH4 0xE6E35E82 EQ PUSH2 0x156 JUMPI DUP1 PUSH4 0xE84C31E3 EQ PUSH2 0x176 JUMPI DUP1 PUSH4 0xF8E8FF23 EQ PUSH2 0x180 JUMPI PUSH1 0x0 DUP1 REVERT JUMPDEST DUP1 PUSH4 0x17F0E8C8 EQ PUSH2 0x98 JUMPI DUP1 PUSH4 0x48891B31 EQ PUSH2 0xC8 JUMPI DUP1 PUSH4 0x49A9910E EQ PUSH2 0xE8 JUMPI DUP1 PUSH4 0xA294DFB0 EQ PUSH2 0xFB JUMPI JUMPDEST PUSH1 0x0 DUP1 REVERT JUMPDEST PUSH1 0x0 SLOAD PUSH2 0xAB SWAP1 PUSH1 0x1 PUSH1 0x1 PUSH1 0xA0 SHL SUB AND DUP2 JUMP JUMPDEST PUSH1 0x40 MLOAD PUSH1 0x1 PUSH1 0x1 PUSH1 0xA0 SHL SUB SWAP1 SWAP2 AND DUP2 MSTORE PUSH1 0x20 ADD JUMPDEST PUSH1 0x40 MLOAD DUP1 SWAP2 SUB SWAP1 RETURN JUMPDEST PUSH2 0xDB PUSH2 0xD6 CALLDATASIZE PUSH1 0x4 PUSH2 0x13D5 JUMP JUMPDEST PUSH2 0x1C1 JUMP JUMPDEST PUSH1 0x40 MLOAD PUSH2 0xBF SWAP2 SWAP1 PUSH2 0x140A JUMP JUMPDEST PUSH2 0xDB PUSH2 0xF6 CALLDATASIZE PUSH1 0x4 PUSH2 0x13D5 JUMP JUMPDEST PUSH2 0x21E JUMP JUMPDEST PUSH2 0xDB PUSH2 0x109 CALLDATASIZE PUSH1 0x4 PUSH2 0x143B JUMP JUMPDEST PUSH2 0x243 JUMP JUMPDEST PUSH2 0x121 PUSH2 0x11C CALLDATASIZE PUSH1 0x4 PUSH2 0x1482 JUMP JUMPDEST PUSH2 0x91D JUMP JUMPDEST PUSH1 0x40 DUP1 MLOAD SWAP3 DUP4 MSTORE PUSH1 0x20 DUP4 ADD SWAP2 SWAP1 SWAP2 MSTORE ADD PUSH2 0xBF JUMP JUMPDEST PUSH2 0x149 PUSH2 0x144 CALLDATASIZE PUSH1 0x4 PUSH2 0x14CD JUMP JUMPDEST PUSH2 0x999 JUMP JUMPDEST PUSH1 0x40 MLOAD PUSH2 0xBF SWAP2 SWAP1 PUSH2 0x14EF JUMP JUMPDEST PUSH2 0x169 PUSH2 0x164 CALLDATASIZE PUSH1 0x4 PUSH2 0x14CD JUMP JUMPDEST PUSH2 0x9FD JUMP JUMPDEST PUSH1 0x40 MLOAD PUSH2 0xBF SWAP2 SWAP1 PUSH2 0x152E JUMP JUMPDEST PUSH2 0x17E PUSH2 0xAF0 JUMP JUMPDEST STOP JUMPDEST PUSH2 0x1B1 PUSH2 0x18E CALLDATASIZE PUSH1 0x4 PUSH2 0x1556 JUMP JUMPDEST DUP1 MLOAD PUSH1 0x20 DUP2 DUP4 ADD DUP2 ADD DUP1 MLOAD PUSH1 0x1 DUP3 MSTORE SWAP3 DUP3 ADD SWAP2 SWAP1 SWAP4 ADD KECCAK256 SWAP2 MSTORE PUSH1 0x5 ADD SLOAD PUSH1 0xFF AND DUP2 JUMP JUMPDEST PUSH1 0x40 MLOAD SWAP1 ISZERO ISZERO DUP2 MSTORE PUSH1 0x20 ADD PUSH2 0xBF JUMP JUMPDEST PUSH2 0x1C9 PUSH2 0x1239 JUMP JUMPDEST PUSH2 0x215 DUP4 PUSH1 0x40 MLOAD DUP1 PUSH1 0x40 ADD PUSH1 0x40 MSTORE DUP1 DUP6 PUSH1 0x2 PUSH1 0x5 DUP2 LT PUSH2 0x1EB JUMPI PUSH2 0x1EB PUSH2 0x1607 JUMP JUMPDEST PUSH1 0x20 MUL ADD MLOAD DUP2 MSTORE PUSH1 0x20 ADD DUP6 PUSH1 0x3 PUSH1 0x5 DUP2 LT PUSH2 0x208 JUMPI PUSH2 0x208 PUSH2 0x1607 JUMP JUMPDEST PUSH1 0x20 MUL ADD MLOAD SWAP1 MSTORE DUP5 PUSH2 0x243 JUMP JUMPDEST SWAP1 POP JUMPDEST SWAP3 SWAP2 POP POP JUMP JUMPDEST PUSH2 0x226 PUSH2 0x1239 JUMP JUMPDEST PUSH2 0x215 DUP4 PUSH1 0x40 MLOAD DUP1 PUSH1 0x40 ADD PUSH1 0x40 MSTORE DUP1 PUSH1 0x1 DUP2 MSTORE PUSH1 0x20 ADD PUSH1 0x0 DUP2 MSTORE POP DUP5 JUMPDEST PUSH2 0x24B PUSH2 0x1239 JUMP JUMPDEST PUSH1 0x0 PUSH1 0x40 MLOAD DUP1 PUSH1 0x40 ADD PUSH1 0x40 MSTORE DUP1 DUP5 PUSH1 0x0 PUSH1 0x5 DUP2 LT PUSH2 0x26B JUMPI PUSH2 0x26B PUSH2 0x1607 JUMP JUMPDEST PUSH1 0x20 MUL ADD MLOAD DUP2 MSTORE PUSH1 0x20 ADD DUP5 PUSH1 0x1 PUSH1 0x5 DUP2 LT PUSH2 0x288 JUMPI PUSH2 0x288 PUSH2 0x1607 JUMP JUMPDEST PUSH1 0x20 MUL ADD MLOAD SWAP1 MSTORE SWAP1 POP PUSH2 0x299 PUSH2 0x1257 JUMP JUMPDEST PUSH1 0x0 DUP1 DUP1 DUP1 DUP1 JUMPDEST DUP3 PUSH1 0x2 EQ PUSH2 0x76C JUMPI POP PUSH1 0x0 SWAP1 POP DUP1 JUMPDEST DUP2 PUSH1 0x2 EQ PUSH2 0x4C4 JUMPI PUSH1 0x0 SLOAD PUSH1 0x1 PUSH1 0x1 PUSH1 0xA0 SHL SUB AND PUSH4 0x7F36876E DUP13 DUP5 PUSH1 0x2 DUP2 LT PUSH2 0x2DA JUMPI PUSH2 0x2DA PUSH2 0x1607 JUMP JUMPDEST PUSH1 0x20 MUL ADD MLOAD DUP13 DUP7 PUSH1 0x2 DUP2 LT PUSH2 0x2F1 JUMPI PUSH2 0x2F1 PUSH2 0x1607 JUMP JUMPDEST PUSH1 0x20 MUL ADD MLOAD PUSH1 0x40 MLOAD PUSH1 0x1 PUSH1 0x1 PUSH1 0xE0 SHL SUB NOT PUSH1 0xE0 DUP6 SWAP1 SHL AND DUP2 MSTORE PUSH1 0x4 DUP2 ADD SWAP3 SWAP1 SWAP3 MSTORE PUSH1 0x24 DUP3 ADD MSTORE PUSH1 0x44 ADD PUSH1 0x40 DUP1 MLOAD DUP1 DUP4 SUB DUP2 DUP7 GAS STATICCALL ISZERO DUP1 ISZERO PUSH2 0x336 JUMPI RETURNDATASIZE PUSH1 0x0 DUP1 RETURNDATACOPY RETURNDATASIZE PUSH1 0x0 REVERT JUMPDEST POP POP POP POP PUSH1 0x40 MLOAD RETURNDATASIZE PUSH1 0x1F NOT PUSH1 0x1F DUP3 ADD AND DUP3 ADD DUP1 PUSH1 0x40 MSTORE POP DUP2 ADD SWAP1 PUSH2 0x35A SWAP2 SWAP1 PUSH2 0x161D JUMP JUMPDEST PUSH1 0x0 SLOAD SWAP1 SWAP7 POP SWAP1 SWAP5 POP PUSH1 0x1 PUSH1 0x1 PUSH1 0xA0 SHL SUB AND PUSH4 0x14D60882 DUP6 DUP8 DUP10 PUSH2 0x37E DUP8 DUP10 PUSH2 0x1657 JUMP JUMPDEST PUSH1 0x4 DUP2 LT PUSH2 0x38E JUMPI PUSH2 0x38E PUSH2 0x1607 JUMP JUMPDEST PUSH1 0x20 MUL ADD MLOAD PUSH1 0x40 MLOAD PUSH1 0x1 PUSH1 0x1 PUSH1 0xE0 SHL SUB NOT PUSH1 0xE0 DUP7 SWAP1 SHL AND DUP2 MSTORE PUSH1 0x4 DUP2 ADD SWAP4 SWAP1 SWAP4 MSTORE PUSH1 0x24 DUP4 ADD SWAP2 SWAP1 SWAP2 MSTORE PUSH1 0x44 DUP3 ADD MSTORE PUSH1 0x0 PUSH1 0x64 DUP3 ADD MSTORE PUSH1 0x84 ADD PUSH1 0x40 DUP1 MLOAD DUP1 DUP4 SUB DUP2 DUP7 GAS STATICCALL ISZERO DUP1 ISZERO PUSH2 0x3E2 JUMPI RETURNDATASIZE PUSH1 0x0 DUP1 RETURNDATACOPY RETURNDATASIZE PUSH1 0x0 REVERT JUMPDEST POP POP POP POP PUSH1 0x40 MLOAD RETURNDATASIZE PUSH1 0x1F NOT PUSH1 0x1F DUP3 ADD AND DUP3 ADD DUP1 PUSH1 0x40 MSTORE POP DUP2 ADD SWAP1 PUSH2 0x406 SWAP2 SWAP1 PUSH2 0x161D JUMP JUMPDEST PUSH1 0x0 DUP1 SLOAD PUSH1 0x40 MLOAD PUSH4 0xA6B0441 PUSH1 0xE1 SHL DUP2 MSTORE PUSH1 0x4 DUP2 ADD DUP6 SWAP1 MSTORE PUSH1 0x24 DUP2 ADD DUP5 SWAP1 MSTORE PUSH1 0x44 DUP2 ADD DUP7 SWAP1 MSTORE PUSH1 0x64 DUP2 ADD SWAP3 SWAP1 SWAP3 MSTORE SWAP2 SWAP8 POP SWAP2 SWAP6 POP PUSH1 0x1 PUSH1 0x1 PUSH1 0xA0 SHL SUB AND SWAP1 PUSH4 0x14D60882 SWAP1 PUSH1 0x84 ADD PUSH1 0x40 DUP1 MLOAD DUP1 DUP4 SUB DUP2 DUP7 GAS STATICCALL ISZERO DUP1 ISZERO PUSH2 0x469 JUMPI RETURNDATASIZE PUSH1 0x0 DUP1 RETURNDATACOPY RETURNDATASIZE PUSH1 0x0 REVERT JUMPDEST POP POP POP POP PUSH1 0x40 MLOAD RETURNDATASIZE PUSH1 0x1F NOT PUSH1 0x1F DUP3 ADD AND DUP3 ADD DUP1 PUSH1 0x40 MSTORE POP DUP2 ADD SWAP1 PUSH2 0x48D SWAP2 SWAP1 PUSH2 0x161D JUMP JUMPDEST SWAP6 POP SWAP4 POP DUP4 DUP7 PUSH2 0x49D DUP5 DUP7 PUSH2 0x1657 JUMP JUMPDEST PUSH1 0x4 DUP2 LT PUSH2 0x4AD JUMPI PUSH2 0x4AD PUSH2 0x1607 JUMP JUMPDEST PUSH1 0x20 MUL ADD MSTORE POP DUP4 PUSH2 0x4BD DUP3 PUSH2 0x166A JUMP JUMPDEST SWAP2 POP PUSH2 0x2AF JUMP JUMPDEST DUP1 DUP7 PUSH2 0x4D1 DUP6 PUSH1 0x2 PUSH2 0x1657 JUMP JUMPDEST PUSH1 0x4 DUP2 LT PUSH2 0x4E1 JUMPI PUSH2 0x4E1 PUSH2 0x1607 JUMP JUMPDEST PUSH1 0x20 MUL ADD DUP2 DUP2 MLOAD PUSH2 0x4F2 SWAP2 SWAP1 PUSH2 0x1657 JUMP JUMPDEST SWAP1 MSTORE POP PUSH1 0x80 DUP10 ADD MLOAD PUSH1 0x0 SWAP1 DUP8 DUP6 PUSH1 0x4 DUP2 LT PUSH2 0x50F JUMPI PUSH2 0x50F PUSH2 0x1607 JUMP JUMPDEST PUSH1 0x20 MUL ADD MLOAD PUSH2 0x51E SWAP2 SWAP1 PUSH2 0x1683 JUMP JUMPDEST SWAP1 POP PUSH1 0x0 SWAP2 POP PUSH1 0x0 SWAP3 POP JUMPDEST DUP3 PUSH1 0x2 EQ PUSH2 0x729 JUMPI PUSH1 0x0 SLOAD PUSH1 0x1 PUSH1 0x1 PUSH1 0xA0 SHL SUB AND PUSH4 0x7F36876E DUP3 DUP11 DUP7 PUSH1 0x2 DUP2 LT PUSH2 0x555 JUMPI PUSH2 0x555 PUSH2 0x1607 JUMP JUMPDEST PUSH1 0x20 MUL ADD MLOAD PUSH1 0x40 MLOAD PUSH1 0x1 PUSH1 0x1 PUSH1 0xE0 SHL SUB NOT PUSH1 0xE0 DUP6 SWAP1 SHL AND DUP2 MSTORE PUSH1 0x4 DUP2 ADD SWAP3 SWAP1 SWAP3 MSTORE PUSH1 0x24 DUP3 ADD MSTORE PUSH1 0x44 ADD PUSH1 0x40 DUP1 MLOAD DUP1 DUP4 SUB DUP2 DUP7 GAS STATICCALL ISZERO DUP1 ISZERO PUSH2 0x59A JUMPI RETURNDATASIZE PUSH1 0x0 DUP1 RETURNDATACOPY RETURNDATASIZE PUSH1 0x0 REVERT JUMPDEST POP POP POP POP PUSH1 0x40 MLOAD RETURNDATASIZE PUSH1 0x1F NOT PUSH1 0x1F DUP3 ADD AND DUP3 ADD DUP1 PUSH1 0x40 MSTORE POP DUP2 ADD SWAP1 PUSH2 0x5BE SWAP2 SWAP1 PUSH2 0x161D JUMP JUMPDEST PUSH1 0x0 SLOAD SWAP1 SWAP8 POP SWAP1 SWAP6 POP PUSH1 0x1 PUSH1 0x1 PUSH1 0xA0 SHL SUB AND PUSH4 0x14D60882 DUP7 DUP9 DUP11 PUSH2 0x5E2 DUP9 DUP11 PUSH2 0x1657 JUMP JUMPDEST PUSH1 0x4 DUP2 LT PUSH2 0x5F2 JUMPI PUSH2 0x5F2 PUSH2 0x1607 JUMP JUMPDEST PUSH1 0x20 MUL ADD MLOAD PUSH1 0x40 MLOAD PUSH1 0x1 PUSH1 0x1 PUSH1 0xE0 SHL SUB NOT PUSH1 0xE0 DUP7 SWAP1 SHL AND DUP2 MSTORE PUSH1 0x4 DUP2 ADD SWAP4 SWAP1 SWAP4 MSTORE PUSH1 0x24 DUP4 ADD SWAP2 SWAP1 SWAP2 MSTORE PUSH1 0x44 DUP3 ADD MSTORE PUSH1 0x0 PUSH1 0x64 DUP3 ADD MSTORE PUSH1 0x84 ADD PUSH1 0x40 DUP1 MLOAD DUP1 DUP4 SUB DUP2 DUP7 GAS STATICCALL ISZERO DUP1 ISZERO PUSH2 0x646 JUMPI RETURNDATASIZE PUSH1 0x0 DUP1 RETURNDATACOPY RETURNDATASIZE PUSH1 0x0 REVERT JUMPDEST POP POP POP POP PUSH1 0x40 MLOAD RETURNDATASIZE PUSH1 0x1F NOT PUSH1 0x1F DUP3 ADD AND DUP3 ADD DUP1 PUSH1 0x40 MSTORE POP DUP2 ADD SWAP1 PUSH2 0x66A SWAP2 SWAP1 PUSH2 0x161D JUMP JUMPDEST PUSH1 0x0 DUP1 SLOAD PUSH1 0x40 MLOAD PUSH4 0xA6B0441 PUSH1 0xE1 SHL DUP2 MSTORE PUSH1 0x4 DUP2 ADD DUP6 SWAP1 MSTORE PUSH1 0x24 DUP2 ADD DUP5 SWAP1 MSTORE PUSH1 0x44 DUP2 ADD DUP8 SWAP1 MSTORE PUSH1 0x64 DUP2 ADD SWAP3 SWAP1 SWAP3 MSTORE SWAP2 SWAP9 POP SWAP2 SWAP7 POP PUSH1 0x1 PUSH1 0x1 PUSH1 0xA0 SHL SUB AND SWAP1 PUSH4 0x14D60882 SWAP1 PUSH1 0x84 ADD PUSH1 0x40 DUP1 MLOAD DUP1 DUP4 SUB DUP2 DUP7 GAS STATICCALL ISZERO DUP1 ISZERO PUSH2 0x6CD JUMPI RETURNDATASIZE PUSH1 0x0 DUP1 RETURNDATACOPY RETURNDATASIZE PUSH1 0x0 REVERT JUMPDEST POP POP POP POP PUSH1 0x40 MLOAD RETURNDATASIZE PUSH1 0x1F NOT PUSH1 0x1F DUP3 ADD AND DUP3 ADD DUP1 PUSH1 0x40 MSTORE POP DUP2 ADD SWAP1 PUSH2 0x6F1 SWAP2 SWAP1 PUSH2 0x161D JUMP JUMPDEST SWAP7 POP SWAP5 POP DUP5 DUP8 PUSH2 0x701 DUP6 DUP8 PUSH2 0x1657 JUMP JUMPDEST PUSH1 0x4 DUP2 LT PUSH2 0x711 JUMPI PUSH2 0x711 PUSH2 0x1607 JUMP JUMPDEST PUSH1 0x20 MUL ADD MSTORE DUP6 SWAP2 POP PUSH2 0x722 DUP4 PUSH2 0x166A JUMP JUMPDEST SWAP3 POP PUSH2 0x529 JUMP JUMPDEST DUP2 DUP8 PUSH2 0x736 DUP7 PUSH1 0x2 PUSH2 0x1657 JUMP JUMPDEST PUSH1 0x4 DUP2 LT PUSH2 0x746 JUMPI PUSH2 0x746 PUSH2 0x1607 JUMP JUMPDEST PUSH1 0x20 MUL ADD DUP2 DUP2 MLOAD PUSH2 0x757 SWAP2 SWAP1 PUSH2 0x1657 JUMP JUMPDEST SWAP1 MSTORE POP PUSH2 0x765 SWAP1 POP DUP4 PUSH2 0x166A JUMP JUMPDEST SWAP3 POP PUSH2 0x2A0 JUMP JUMPDEST PUSH2 0x774 PUSH2 0x1239 JUMP JUMPDEST PUSH1 0x0 DUP1 DUP1 PUSH1 0x0 SWAP6 POP JUMPDEST DUP6 PUSH1 0x2 EQ PUSH2 0x83F JUMPI DUP3 DUP12 DUP8 PUSH1 0x2 DUP2 LT PUSH2 0x798 JUMPI PUSH2 0x798 PUSH2 0x1607 JUMP JUMPDEST PUSH1 0x20 MUL ADD MLOAD PUSH2 0x7A7 SWAP2 SWAP1 PUSH2 0x1657 JUMP JUMPDEST DUP11 DUP8 PUSH1 0x4 DUP2 LT PUSH2 0x7B9 JUMPI PUSH2 0x7B9 PUSH2 0x1607 JUMP JUMPDEST PUSH1 0x20 MUL ADD MLOAD GT ISZERO PUSH2 0x7CC JUMPI POP PUSH1 0x0 PUSH2 0x7D0 JUMP JUMPDEST POP PUSH1 0x1 JUMPDEST DUP3 DUP12 DUP8 PUSH1 0x2 DUP2 LT PUSH2 0x7E3 JUMPI PUSH2 0x7E3 PUSH2 0x1607 JUMP JUMPDEST PUSH1 0x20 MUL ADD MLOAD DUP12 DUP9 PUSH1 0x4 DUP2 LT PUSH2 0x7FA JUMPI PUSH2 0x7FA PUSH2 0x1607 JUMP JUMPDEST PUSH1 0x20 MUL ADD MLOAD SUB SUB SWAP2 POP DUP2 DUP5 DUP8 PUSH1 0x2 DUP2 LT PUSH2 0x816 JUMPI PUSH2 0x816 PUSH2 0x1607 JUMP JUMPDEST PUSH1 0x20 MUL ADD MSTORE DUP1 PUSH2 0x827 JUMPI PUSH1 0x0 PUSH2 0x82A JUMP JUMPDEST PUSH1 0x1 JUMPDEST PUSH1 0xFF AND SWAP3 POP PUSH2 0x838 DUP7 PUSH2 0x166A JUMP JUMPDEST SWAP6 POP PUSH2 0x77D JUMP JUMPDEST PUSH1 0x40 DUP1 MLOAD DUP1 DUP3 ADD SWAP1 SWAP2 MSTORE PUSH1 0x0 DUP1 DUP3 MSTORE PUSH1 0x0 NOT PUSH1 0x20 DUP4 ADD MSTORE DUP5 SWAP1 SUB PUSH2 0x879 JUMPI POP PUSH1 0x40 DUP1 MLOAD DUP1 DUP3 ADD SWAP1 SWAP2 MSTORE PUSH1 0x0 DUP2 MSTORE PUSH1 0x0 NOT PUSH1 0x20 DUP3 ADD MSTORE PUSH2 0x891 JUMP JUMPDEST POP PUSH1 0x40 DUP1 MLOAD DUP1 DUP3 ADD SWAP1 SWAP2 MSTORE PUSH1 0x0 NOT DUP2 MSTORE PUSH1 0x0 PUSH1 0x20 DUP3 ADD MSTORE JUMPDEST PUSH1 0x0 SWAP7 POP JUMPDEST DUP7 PUSH1 0x2 EQ PUSH2 0x90A JUMPI DUP5 DUP8 PUSH1 0x2 DUP2 LT PUSH2 0x8B0 JUMPI PUSH2 0x8B0 PUSH2 0x1607 JUMP JUMPDEST PUSH1 0x20 MUL ADD MLOAD DUP2 PUSH1 0x1 PUSH1 0x20 MUL ADD MLOAD AND DUP12 PUSH2 0x8CA DUP10 PUSH1 0x2 PUSH2 0x1657 JUMP JUMPDEST PUSH1 0x4 DUP2 LT PUSH2 0x8DA JUMPI PUSH2 0x8DA PUSH2 0x1607 JUMP JUMPDEST PUSH1 0x20 MUL ADD MLOAD DUP3 MLOAD AND OR DUP14 DUP9 PUSH1 0x2 DUP2 LT PUSH2 0x8F5 JUMPI PUSH2 0x8F5 PUSH2 0x1607 JUMP JUMPDEST PUSH1 0x20 MUL ADD MSTORE PUSH2 0x903 DUP8 PUSH2 0x166A JUMP JUMPDEST SWAP7 POP PUSH2 0x896 JUMP JUMPDEST POP POP POP POP POP POP POP POP POP POP POP POP SWAP4 SWAP3 POP POP POP JUMP JUMPDEST PUSH1 0x0 DUP1 PUSH1 0x0 PUSH2 0x940 PUSH1 0x40 MLOAD DUP1 PUSH1 0x40 ADD PUSH1 0x40 MSTORE DUP1 DUP11 DUP2 MSTORE PUSH1 0x20 ADD DUP10 DUP2 MSTORE POP DUP6 PUSH2 0x1C1 JUMP JUMPDEST SWAP1 POP PUSH1 0x0 PUSH2 0x962 PUSH1 0x40 MLOAD DUP1 PUSH1 0x40 ADD PUSH1 0x40 MSTORE DUP1 DUP10 DUP2 MSTORE PUSH1 0x20 ADD DUP9 DUP2 MSTORE POP DUP7 PUSH2 0x1C1 JUMP JUMPDEST SWAP1 POP PUSH1 0x0 PUSH2 0x971 DUP4 DUP4 DUP9 PUSH2 0x243 JUMP JUMPDEST SWAP1 POP PUSH1 0x0 PUSH2 0x97F DUP3 DUP9 PUSH2 0x21E JUMP JUMPDEST DUP1 MLOAD PUSH1 0x20 SWAP1 SWAP2 ADD MLOAD SWAP1 SWAP13 SWAP1 SWAP12 POP SWAP10 POP POP POP POP POP POP POP POP POP POP JUMP JUMPDEST PUSH2 0x9A1 PUSH2 0x1275 JUMP JUMPDEST PUSH2 0x9A9 PUSH2 0x1295 JUMP JUMPDEST DUP3 PUSH1 0x0 SUB PUSH2 0x9BB JUMPI PUSH2 0x100 DUP2 MSTORE PUSH2 0x9C1 JUMP JUMPDEST PUSH2 0x200 DUP2 MSTORE JUMPDEST PUSH1 0x0 PUSH1 0x20 DUP1 DUP4 ADD DUP3 SWAP1 MSTORE PUSH1 0x40 DUP1 DUP5 ADD DUP4 SWAP1 MSTORE PUSH1 0x60 DUP5 ADD DUP4 SWAP1 MSTORE PUSH1 0x80 DUP5 ADD SWAP3 SWAP1 SWAP3 MSTORE DUP2 MLOAD DUP1 DUP4 ADD SWAP1 SWAP3 MSTORE SWAP2 DUP2 MSTORE PUSH1 0x1 SWAP2 DUP2 ADD SWAP2 SWAP1 SWAP2 MSTORE SWAP4 SWAP3 POP POP POP JUMP JUMPDEST PUSH2 0xA05 PUSH2 0x1295 JUMP JUMPDEST PUSH1 0x0 PUSH1 0x1 DUP5 DUP5 PUSH1 0x40 MLOAD PUSH1 0x20 ADD PUSH2 0xA25 SWAP3 SWAP2 SWAP1 SWAP2 DUP3 MSTORE PUSH1 0x20 DUP3 ADD MSTORE PUSH1 0x40 ADD SWAP1 JUMP JUMPDEST PUSH1 0x40 DUP1 MLOAD PUSH1 0x1F NOT DUP2 DUP5 SUB ADD DUP2 MSTORE SWAP1 DUP3 SWAP1 MSTORE PUSH2 0xA3F SWAP2 PUSH2 0x169A JUMP JUMPDEST SWAP1 DUP2 MSTORE PUSH1 0x40 DUP1 MLOAD SWAP2 DUP3 SWAP1 SUB PUSH1 0x20 ADD DUP3 KECCAK256 PUSH1 0xE0 DUP4 ADD DUP3 MSTORE SWAP1 DUP3 SWAP1 DUP2 ADD DUP3 PUSH1 0x5 DUP3 DUP3 DUP3 PUSH1 0x20 MUL DUP3 ADD SWAP2 JUMPDEST DUP2 SLOAD DUP2 MSTORE PUSH1 0x20 ADD SWAP1 PUSH1 0x1 ADD SWAP1 DUP1 DUP4 GT PUSH2 0xA67 JUMPI POP POP POP SWAP2 DUP4 MSTORE POP POP PUSH1 0x5 SWAP2 SWAP1 SWAP2 ADD SLOAD PUSH1 0xFF AND ISZERO ISZERO PUSH1 0x20 SWAP2 DUP3 ADD MSTORE DUP2 ADD MLOAD SWAP1 SWAP2 POP ISZERO ISZERO PUSH1 0x0 SUB PUSH2 0xAB0 JUMPI PUSH2 0xAAD DUP5 DUP5 PUSH2 0x999 JUMP JUMPDEST SWAP1 POP JUMPDEST PUSH1 0x40 DUP1 MLOAD PUSH1 0xA0 DUP2 ADD DUP3 MSTORE DUP6 DUP2 MSTORE PUSH1 0x20 DUP1 DUP3 ADD DUP7 SWAP1 MSTORE DUP4 MLOAD ADD MLOAD DUP2 DUP4 ADD MSTORE DUP3 MLOAD SWAP1 SWAP2 ADD MLOAD PUSH1 0x60 DUP3 ADD MSTORE DUP2 MLOAD PUSH1 0x80 DUP3 ADD SWAP1 PUSH1 0x3 PUSH1 0x20 MUL ADD MLOAD SWAP1 MSTORE SWAP5 SWAP4 POP POP POP POP JUMP JUMPDEST PUSH1 0x40 DUP1 MLOAD PUSH1 0xE0 DUP2 ADD DUP3 MSTORE SWAP1 DUP2 SWAP1 DUP2 ADD PUSH1 0x2 PUSH1 0x5 DUP3 DUP3 DUP3 PUSH1 0x20 MUL DUP3 ADD SWAP2 JUMPDEST DUP2 SLOAD DUP2 MSTORE PUSH1 0x20 ADD SWAP1 PUSH1 0x1 ADD SWAP1 DUP1 DUP4 GT PUSH2 0xB0D JUMPI POP POP POP SWAP2 DUP4 MSTORE POP POP PUSH1 0x1 PUSH1 0x20 SWAP2 DUP3 ADD DUP2 SWAP1 MSTORE PUSH1 0x40 DUP1 MLOAD PUSH32 0x8000000000000000000000000000000150FE8A1892976154C59CFC193ACCF5B3 SWAP4 DUP2 ADD SWAP4 SWAP1 SWAP4 MSTORE PUSH1 0x0 SWAP1 DUP4 ADD MSTORE SWAP1 PUSH1 0x60 ADD PUSH1 0x40 DUP1 MLOAD PUSH1 0x1F NOT DUP2 DUP5 SUB ADD DUP2 MSTORE SWAP1 DUP3 SWAP1 MSTORE PUSH2 0xB82 SWAP2 PUSH2 0x169A JUMP JUMPDEST SWAP1 DUP2 MSTORE PUSH1 0x40 MLOAD SWAP1 DUP2 SWAP1 SUB PUSH1 0x20 ADD SWAP1 KECCAK256 DUP2 MLOAD PUSH2 0xBA0 SWAP1 DUP3 SWAP1 PUSH1 0x5 PUSH2 0x12B3 JUMP JUMPDEST POP PUSH1 0x20 SWAP2 SWAP1 SWAP2 ADD MLOAD PUSH1 0x5 SWAP2 DUP3 ADD DUP1 SLOAD PUSH1 0xFF NOT AND SWAP2 ISZERO ISZERO SWAP2 SWAP1 SWAP2 OR SWAP1 SSTORE PUSH1 0x40 DUP1 MLOAD PUSH1 0xE0 DUP2 ADD DUP1 DUP4 MSTORE SWAP1 SWAP3 DUP4 SWAP3 DUP4 ADD SWAP2 PUSH1 0x7 SWAP2 SWAP1 DUP3 DUP5 JUMPDEST DUP2 SLOAD DUP2 MSTORE PUSH1 0x20 ADD SWAP1 PUSH1 0x1 ADD SWAP1 DUP1 DUP4 GT PUSH2 0xBD5 JUMPI POP POP POP POP POP DUP2 MSTORE PUSH1 0x20 ADD PUSH1 0x1 ISZERO ISZERO DUP2 MSTORE POP PUSH1 0x1 PUSH32 0xA82F2D7ECB1DBAC719905C5EECC423F1D86E25EDBE23C595D644AAF187E6E6DF PUSH32 0x4531ACD1FE0023C7550D267B6B2FEE80922B14B2FFB90F04D4EB7C09B5D2D15D PUSH1 0x40 MLOAD PUSH1 0x20 ADD PUSH2 0xC57 SWAP3 SWAP2 SWAP1 SWAP2 DUP3 MSTORE PUSH1 0x20 DUP3 ADD MSTORE PUSH1 0x40 ADD SWAP1 JUMP JUMPDEST PUSH1 0x40 DUP1 MLOAD PUSH1 0x1F NOT DUP2 DUP5 SUB ADD DUP2 MSTORE SWAP1 DUP3 SWAP1 MSTORE PUSH2 0xC71 SWAP2 PUSH2 0x169A JUMP JUMPDEST SWAP1 DUP2 MSTORE PUSH1 0x40 MLOAD SWAP1 DUP2 SWAP1 SUB PUSH1 0x20 ADD SWAP1 KECCAK256 DUP2 MLOAD PUSH2 0xC8F SWAP1 DUP3 SWAP1 PUSH1 0x5 PUSH2 0x12B3 JUMP JUMPDEST POP PUSH1 0x20 SWAP2 SWAP1 SWAP2 ADD MLOAD PUSH1 0x5 SWAP2 DUP3 ADD DUP1 SLOAD PUSH1 0xFF NOT AND SWAP2 ISZERO ISZERO SWAP2 SWAP1 SWAP2 OR SWAP1 SSTORE PUSH1 0x40 DUP1 MLOAD PUSH1 0xE0 DUP2 ADD DUP1 DUP4 MSTORE SWAP1 SWAP3 DUP4 SWAP3 DUP4 ADD SWAP2 PUSH1 0xC SWAP2 SWAP1 DUP3 DUP5 JUMPDEST DUP2 SLOAD DUP2 MSTORE PUSH1 0x20 ADD SWAP1 PUSH1 0x1 ADD SWAP1 DUP1 DUP4 GT PUSH2 0xCC4 JUMPI POP POP POP POP POP DUP2 MSTORE PUSH1 0x20 ADD PUSH1 0x1 ISZERO ISZERO DUP2 MSTORE POP PUSH1 0x1 PUSH32 0x27E69532F48D89116FF22B8D4E0560609B4B38ABFAD2B85DCACDB1411F10B275 PUSH1 0x0 NOT PUSH1 0x40 MLOAD PUSH1 0x20 ADD PUSH2 0xD28 SWAP3 SWAP2 SWAP1 SWAP2 DUP3 MSTORE PUSH1 0x20 DUP3 ADD MSTORE PUSH1 0x40 ADD SWAP1 JUMP JUMPDEST PUSH1 0x40 DUP1 MLOAD PUSH1 0x1F NOT DUP2 DUP5 SUB ADD DUP2 MSTORE SWAP1 DUP3 SWAP1 MSTORE PUSH2 0xD42 SWAP2 PUSH2 0x169A JUMP JUMPDEST SWAP1 DUP2 MSTORE PUSH1 0x40 MLOAD SWAP1 DUP2 SWAP1 SUB PUSH1 0x20 ADD SWAP1 KECCAK256 DUP2 MLOAD PUSH2 0xD60 SWAP1 DUP3 SWAP1 PUSH1 0x5 PUSH2 0x12B3 JUMP JUMPDEST POP PUSH1 0x20 SWAP2 SWAP1 SWAP2 ADD MLOAD PUSH1 0x5 SWAP2 DUP3 ADD DUP1 SLOAD PUSH1 0xFF NOT AND SWAP2 ISZERO ISZERO SWAP2 SWAP1 SWAP2 OR SWAP1 SSTORE PUSH1 0x40 DUP1 MLOAD PUSH1 0xE0 DUP2 ADD DUP1 DUP4 MSTORE SWAP1 SWAP3 DUP4 SWAP3 DUP4 ADD SWAP2 PUSH1 0x11 SWAP2 SWAP1 DUP3 DUP5 JUMPDEST DUP2 SLOAD DUP2 MSTORE PUSH1 0x20 ADD SWAP1 PUSH1 0x1 ADD SWAP1 DUP1 DUP4 GT PUSH2 0xD95 JUMPI POP POP POP POP POP DUP2 MSTORE PUSH1 0x20 ADD PUSH1 0x1 ISZERO ISZERO DUP2 MSTORE POP PUSH1 0x1 PUSH32 0x49A1EC142565A545ACFDB77BD9D40CFA8B996712101BEA0EC6346C54374F25BD PUSH1 0x1 PUSH1 0x1 PUSH1 0xFF SHL ADD PUSH1 0x40 MLOAD PUSH1 0x20 ADD PUSH2 0xDFE SWAP3 SWAP2 SWAP1 SWAP2 DUP3 MSTORE PUSH1 0x20 DUP3 ADD MSTORE PUSH1 0x40 ADD SWAP1 JUMP JUMPDEST PUSH1 0x40 DUP1 MLOAD PUSH1 0x1F NOT DUP2 DUP5 SUB ADD DUP2 MSTORE SWAP1 DUP3 SWAP1 MSTORE PUSH2 0xE18 SWAP2 PUSH2 0x169A JUMP JUMPDEST SWAP1 DUP2 MSTORE PUSH1 0x40 MLOAD SWAP1 DUP2 SWAP1 SUB PUSH1 0x20 ADD SWAP1 KECCAK256 DUP2 MLOAD PUSH2 0xE36 SWAP1 DUP3 SWAP1 PUSH1 0x5 PUSH2 0x12B3 JUMP JUMPDEST POP PUSH1 0x20 SWAP2 SWAP1 SWAP2 ADD MLOAD PUSH1 0x5 SWAP2 DUP3 ADD DUP1 SLOAD PUSH1 0xFF NOT AND SWAP2 ISZERO ISZERO SWAP2 SWAP1 SWAP2 OR SWAP1 SSTORE PUSH1 0x40 DUP1 MLOAD PUSH1 0xE0 DUP2 ADD DUP1 DUP4 MSTORE SWAP1 SWAP3 DUP4 SWAP3 DUP4 ADD SWAP2 PUSH1 0x16 SWAP2 SWAP1 DUP3 DUP5 JUMPDEST DUP2 SLOAD DUP2 MSTORE PUSH1 0x20 ADD SWAP1 PUSH1 0x1 ADD SWAP1 DUP1 DUP4 GT PUSH2 0xE6B JUMPI POP POP POP SWAP2 DUP4 MSTORE POP POP PUSH1 0x1 PUSH1 0x20 SWAP2 DUP3 ADD DUP2 SWAP1 MSTORE PUSH1 0x40 DUP1 MLOAD PUSH32 0x400000000000000000000000000000000FD8CDDFC87B6635C115AF556C360C67 SWAP4 DUP2 ADD SWAP4 SWAP1 SWAP4 MSTORE PUSH1 0x0 SWAP1 DUP4 ADD MSTORE SWAP1 PUSH1 0x60 ADD PUSH1 0x40 DUP1 MLOAD PUSH1 0x1F NOT DUP2 DUP5 SUB ADD DUP2 MSTORE SWAP1 DUP3 SWAP1 MSTORE PUSH2 0xEE0 SWAP2 PUSH2 0x169A JUMP JUMPDEST SWAP1 DUP2 MSTORE PUSH1 0x40 MLOAD SWAP1 DUP2 SWAP1 SUB PUSH1 0x20 ADD SWAP1 KECCAK256 DUP2 MLOAD PUSH2 0xEFE SWAP1 DUP3 SWAP1 PUSH1 0x5 PUSH2 0x12B3 JUMP JUMPDEST POP PUSH1 0x20 SWAP2 SWAP1 SWAP2 ADD MLOAD PUSH1 0x5 SWAP2 DUP3 ADD DUP1 SLOAD PUSH1 0xFF NOT AND SWAP2 ISZERO ISZERO SWAP2 SWAP1 SWAP2 OR SWAP1 SSTORE PUSH1 0x40 DUP1 MLOAD PUSH1 0xE0 DUP2 ADD DUP1 DUP4 MSTORE SWAP1 SWAP3 DUP4 SWAP3 DUP4 ADD SWAP2 PUSH1 0x1B SWAP2 SWAP1 DUP3 DUP5 JUMPDEST DUP2 SLOAD DUP2 MSTORE PUSH1 0x20 ADD SWAP1 PUSH1 0x1 ADD SWAP1 DUP1 DUP4 GT PUSH2 0xF33 JUMPI POP POP POP POP POP DUP2 MSTORE PUSH1 0x20 ADD PUSH1 0x1 ISZERO ISZERO DUP2 MSTORE POP PUSH1 0x1 PUSH32 0xC98CDBA46506AB004C33A9FF5147502CC8EDA9E7A769A12694623CEF47F023ED PUSH1 0x1 PUSH1 0x1 PUSH1 0xFE SHL SUB PUSH1 0x40 MLOAD PUSH1 0x20 ADD PUSH2 0xF9C SWAP3 SWAP2 SWAP1 SWAP2 DUP3 MSTORE PUSH1 0x20 DUP3 ADD MSTORE PUSH1 0x40 ADD SWAP1 JUMP JUMPDEST PUSH1 0x40 DUP1 MLOAD PUSH1 0x1F NOT DUP2 DUP5 SUB ADD DUP2 MSTORE SWAP1 DUP3 SWAP1 MSTORE PUSH2 0xFB6 SWAP2 PUSH2 0x169A JUMP JUMPDEST SWAP1 DUP2 MSTORE PUSH1 0x40 MLOAD SWAP1 DUP2 SWAP1 SUB PUSH1 0x20 ADD SWAP1 KECCAK256 DUP2 MLOAD PUSH2 0xFD4 SWAP1 DUP3 SWAP1 PUSH1 0x5 PUSH2 0x12B3 JUMP JUMPDEST POP PUSH1 0x20 SWAP2 DUP3 ADD MLOAD PUSH1 0x5 SWAP2 DUP3 ADD DUP1 SLOAD PUSH1 0xFF NOT AND SWAP2 ISZERO ISZERO SWAP2 SWAP1 SWAP2 OR SWAP1 SSTORE PUSH1 0x40 DUP1 MLOAD PUSH1 0xE0 DUP2 ADD DUP1 DUP4 MSTORE SWAP1 SWAP4 DUP5 SWAP4 SWAP3 DUP5 ADD SWAP3 SWAP1 SWAP2 DUP3 DUP5 JUMPDEST DUP2 SLOAD DUP2 MSTORE PUSH1 0x20 ADD SWAP1 PUSH1 0x1 ADD SWAP1 DUP1 DUP4 GT PUSH2 0x1007 JUMPI POP POP POP SWAP2 DUP4 MSTORE POP POP PUSH1 0x1 PUSH1 0x20 SWAP2 DUP3 ADD DUP2 SWAP1 MSTORE PUSH1 0x40 DUP1 MLOAD PUSH16 0x939EEF8F66A52EFFBA7BE4F6489E476C NOT SWAP4 DUP2 ADD SWAP4 SWAP1 SWAP4 MSTORE PUSH1 0x0 SWAP1 DUP4 ADD MSTORE SWAP1 PUSH1 0x60 ADD PUSH1 0x40 DUP1 MLOAD PUSH1 0x1F NOT DUP2 DUP5 SUB ADD DUP2 MSTORE SWAP1 DUP3 SWAP1 MSTORE PUSH2 0x106D SWAP2 PUSH2 0x169A JUMP JUMPDEST SWAP1 DUP2 MSTORE PUSH1 0x40 MLOAD SWAP1 DUP2 SWAP1 SUB PUSH1 0x20 ADD SWAP1 KECCAK256 DUP2 MLOAD PUSH2 0x108B SWAP1 DUP3 SWAP1 PUSH1 0x5 PUSH2 0x12B3 JUMP JUMPDEST POP PUSH1 0x20 SWAP2 SWAP1 SWAP2 ADD MLOAD PUSH1 0x5 SWAP2 DUP3 ADD DUP1 SLOAD PUSH1 0xFF NOT AND SWAP2 ISZERO ISZERO SWAP2 SWAP1 SWAP2 OR SWAP1 SSTORE PUSH1 0x40 DUP1 MLOAD PUSH1 0xE0 DUP2 ADD DUP1 DUP4 MSTORE SWAP1 SWAP3 DUP4 SWAP3 DUP4 ADD SWAP2 PUSH1 0x25 SWAP2 SWAP1 DUP3 DUP5 JUMPDEST DUP2 SLOAD DUP2 MSTORE PUSH1 0x20 ADD SWAP1 PUSH1 0x1 ADD SWAP1 DUP1 DUP4 GT PUSH2 0x10C0 JUMPI POP POP POP SWAP2 DUP4 MSTORE POP POP PUSH1 0x1 PUSH1 0x20 SWAP2 DUP3 ADD DUP2 SWAP1 MSTORE PUSH1 0x40 DUP1 MLOAD PUSH32 0x800000000000000000000000000000015F700CFFF1A624E5E497161BCC8A198F SWAP4 DUP2 ADD SWAP4 SWAP1 SWAP4 MSTORE PUSH1 0x0 SWAP1 DUP4 ADD MSTORE SWAP1 PUSH1 0x60 ADD PUSH1 0x40 DUP1 MLOAD PUSH1 0x1F NOT DUP2 DUP5 SUB ADD DUP2 MSTORE SWAP1 DUP3 SWAP1 MSTORE PUSH2 0x1135 SWAP2 PUSH2 0x169A JUMP JUMPDEST SWAP1 DUP2 MSTORE PUSH1 0x40 MLOAD SWAP1 DUP2 SWAP1 SUB PUSH1 0x20 ADD SWAP1 KECCAK256 DUP2 MLOAD PUSH2 0x1153 SWAP1 DUP3 SWAP1 PUSH1 0x5 PUSH2 0x12B3 JUMP JUMPDEST POP PUSH1 0x20 SWAP2 SWAP1 SWAP2 ADD MLOAD PUSH1 0x5 SWAP2 DUP3 ADD DUP1 SLOAD PUSH1 0xFF NOT AND SWAP2 ISZERO ISZERO SWAP2 SWAP1 SWAP2 OR SWAP1 SSTORE PUSH1 0x40 DUP1 MLOAD PUSH1 0xE0 DUP2 ADD DUP1 DUP4 MSTORE SWAP1 SWAP3 DUP4 SWAP3 DUP4 ADD SWAP2 PUSH1 0x2A SWAP2 SWAP1 DUP3 DUP5 JUMPDEST DUP2 SLOAD DUP2 MSTORE PUSH1 0x20 ADD SWAP1 PUSH1 0x1 ADD SWAP1 DUP1 DUP4 GT PUSH2 0x1188 JUMPI POP POP POP SWAP2 DUP4 MSTORE POP POP PUSH1 0x1 PUSH1 0x20 SWAP2 DUP3 ADD DUP2 SWAP1 MSTORE PUSH1 0x40 DUP1 MLOAD PUSH32 0x9B9F605F5A858107AB1EC85E6B41C8AA582CA3511EDDFB74F02F3A6598980BB9 SWAP4 DUP2 ADD SWAP4 SWAP1 SWAP4 MSTORE PUSH1 0x0 SWAP1 DUP4 ADD MSTORE SWAP1 PUSH1 0x60 ADD PUSH1 0x40 DUP1 MLOAD PUSH1 0x1F NOT DUP2 DUP5 SUB ADD DUP2 MSTORE SWAP1 DUP3 SWAP1 MSTORE PUSH2 0x11FD SWAP2 PUSH2 0x169A JUMP JUMPDEST SWAP1 DUP2 MSTORE PUSH1 0x40 MLOAD SWAP1 DUP2 SWAP1 SUB PUSH1 0x20 ADD SWAP1 KECCAK256 DUP2 MLOAD PUSH2 0x121B SWAP1 DUP3 SWAP1 PUSH1 0x5 PUSH2 0x12B3 JUMP JUMPDEST POP PUSH1 0x20 SWAP2 SWAP1 SWAP2 ADD MLOAD PUSH1 0x5 SWAP1 SWAP2 ADD DUP1 SLOAD PUSH1 0xFF NOT AND SWAP2 ISZERO ISZERO SWAP2 SWAP1 SWAP2 OR SWAP1 SSTORE JUMP JUMPDEST PUSH1 0x40 MLOAD DUP1 PUSH1 0x40 ADD PUSH1 0x40 MSTORE DUP1 PUSH1 0x2 SWAP1 PUSH1 0x20 DUP3 MUL DUP1 CALLDATASIZE DUP4 CALLDATACOPY POP SWAP2 SWAP3 SWAP2 POP POP JUMP JUMPDEST PUSH1 0x40 MLOAD DUP1 PUSH1 0x80 ADD PUSH1 0x40 MSTORE DUP1 PUSH1 0x4 SWAP1 PUSH1 0x20 DUP3 MUL DUP1 CALLDATASIZE DUP4 CALLDATACOPY POP SWAP2 SWAP3 SWAP2 POP POP JUMP JUMPDEST PUSH1 0x40 MLOAD DUP1 PUSH1 0x40 ADD PUSH1 0x40 MSTORE DUP1 PUSH2 0x1288 PUSH2 0x1295 JUMP JUMPDEST DUP2 MSTORE PUSH1 0x0 PUSH1 0x20 SWAP1 SWAP2 ADD MSTORE SWAP1 JUMP JUMPDEST PUSH1 0x40 MLOAD DUP1 PUSH1 0xA0 ADD PUSH1 0x40 MSTORE DUP1 PUSH1 0x5 SWAP1 PUSH1 0x20 DUP3 MUL DUP1 CALLDATASIZE DUP4 CALLDATACOPY POP SWAP2 SWAP3 SWAP2 POP POP JUMP JUMPDEST DUP3 PUSH1 0x5 DUP2 ADD SWAP3 DUP3 ISZERO PUSH2 0x12E1 JUMPI SWAP2 PUSH1 0x20 MUL DUP3 ADD JUMPDEST DUP3 DUP2 GT ISZERO PUSH2 0x12E1 JUMPI DUP3 MLOAD DUP3 SSTORE SWAP2 PUSH1 0x20 ADD SWAP2 SWAP1 PUSH1 0x1 ADD SWAP1 PUSH2 0x12C6 JUMP JUMPDEST POP PUSH2 0x12ED SWAP3 SWAP2 POP PUSH2 0x12F1 JUMP JUMPDEST POP SWAP1 JUMP JUMPDEST JUMPDEST DUP1 DUP3 GT ISZERO PUSH2 0x12ED JUMPI PUSH1 0x0 DUP2 SSTORE PUSH1 0x1 ADD PUSH2 0x12F2 JUMP JUMPDEST PUSH4 0x4E487B71 PUSH1 0xE0 SHL PUSH1 0x0 MSTORE PUSH1 0x41 PUSH1 0x4 MSTORE PUSH1 0x24 PUSH1 0x0 REVERT JUMPDEST PUSH1 0x0 DUP3 PUSH1 0x1F DUP4 ADD SLT PUSH2 0x132D JUMPI PUSH1 0x0 DUP1 REVERT JUMPDEST PUSH1 0x40 MLOAD PUSH1 0x40 DUP2 ADD DUP2 DUP2 LT PUSH8 0xFFFFFFFFFFFFFFFF DUP3 GT OR ISZERO PUSH2 0x1350 JUMPI PUSH2 0x1350 PUSH2 0x1306 JUMP JUMPDEST DUP1 PUSH1 0x40 MSTORE POP DUP1 PUSH1 0x40 DUP5 ADD DUP6 DUP2 GT ISZERO PUSH2 0x1367 JUMPI PUSH1 0x0 DUP1 REVERT JUMPDEST DUP5 JUMPDEST DUP2 DUP2 LT ISZERO PUSH2 0x1381 JUMPI DUP1 CALLDATALOAD DUP4 MSTORE PUSH1 0x20 SWAP3 DUP4 ADD SWAP3 ADD PUSH2 0x1369 JUMP JUMPDEST POP SWAP2 SWAP6 SWAP5 POP POP POP POP POP JUMP JUMPDEST PUSH1 0x0 DUP3 PUSH1 0x1F DUP4 ADD SLT PUSH2 0x139D JUMPI PUSH1 0x0 DUP1 REVERT JUMPDEST PUSH1 0x40 MLOAD PUSH1 0xA0 DUP2 ADD DUP2 DUP2 LT PUSH8 0xFFFFFFFFFFFFFFFF DUP3 GT OR ISZERO PUSH2 0x13C0 JUMPI PUSH2 0x13C0 PUSH2 0x1306 JUMP JUMPDEST PUSH1 0x40 MSTORE DUP1 PUSH1 0xA0 DUP5 ADD DUP6 DUP2 GT ISZERO PUSH2 0x1367 JUMPI PUSH1 0x0 DUP1 REVERT JUMPDEST PUSH1 0x0 DUP1 PUSH1 0xE0 DUP4 DUP6 SUB SLT ISZERO PUSH2 0x13E8 JUMPI PUSH1 0x0 DUP1 REVERT JUMPDEST PUSH2 0x13F2 DUP5 DUP5 PUSH2 0x131C JUMP JUMPDEST SWAP2 POP PUSH2 0x1401 DUP5 PUSH1 0x40 DUP6 ADD PUSH2 0x138C JUMP JUMPDEST SWAP1 POP SWAP3 POP SWAP3 SWAP1 POP JUMP JUMPDEST PUSH1 0x40 DUP2 ADD DUP2 DUP4 PUSH1 0x0 JUMPDEST PUSH1 0x2 DUP2 LT ISZERO PUSH2 0x1432 JUMPI DUP2 MLOAD DUP4 MSTORE PUSH1 0x20 SWAP3 DUP4 ADD SWAP3 SWAP1 SWAP2 ADD SWAP1 PUSH1 0x1 ADD PUSH2 0x1413 JUMP JUMPDEST POP POP POP SWAP3 SWAP2 POP POP JUMP JUMPDEST PUSH1 0x0 DUP1 PUSH1 0x0 PUSH2 0x120 DUP5 DUP7 SUB SLT ISZERO PUSH2 0x1451 JUMPI PUSH1 0x0 DUP1 REVERT JUMPDEST PUSH2 0x145B DUP6 DUP6 PUSH2 0x131C JUMP JUMPDEST SWAP3 POP PUSH2 0x146A DUP6 PUSH1 0x40 DUP7 ADD PUSH2 0x131C JUMP JUMPDEST SWAP2 POP PUSH2 0x1479 DUP6 PUSH1 0x80 DUP7 ADD PUSH2 0x138C JUMP JUMPDEST SWAP1 POP SWAP3 POP SWAP3 POP SWAP3 JUMP JUMPDEST PUSH1 0x0 DUP1 PUSH1 0x0 DUP1 PUSH1 0x0 PUSH2 0x120 DUP7 DUP9 SUB SLT ISZERO PUSH2 0x149B JUMPI PUSH1 0x0 DUP1 REVERT JUMPDEST DUP6 CALLDATALOAD SWAP5 POP PUSH1 0x20 DUP7 ADD CALLDATALOAD SWAP4 POP PUSH1 0x40 DUP7 ADD CALLDATALOAD SWAP3 POP PUSH1 0x60 DUP7 ADD CALLDATALOAD SWAP2 POP PUSH2 0x14C1 DUP8 PUSH1 0x80 DUP9 ADD PUSH2 0x138C JUMP JUMPDEST SWAP1 POP SWAP3 SWAP6 POP SWAP3 SWAP6 SWAP1 SWAP4 POP JUMP JUMPDEST PUSH1 0x0 DUP1 PUSH1 0x40 DUP4 DUP6 SUB SLT ISZERO PUSH2 0x14E0 JUMPI PUSH1 0x0 DUP1 REVERT JUMPDEST POP POP DUP1 CALLDATALOAD SWAP3 PUSH1 0x20 SWAP1 SWAP2 ADD CALLDATALOAD SWAP2 POP JUMP JUMPDEST DUP2 MLOAD PUSH1 0xC0 DUP3 ADD SWAP1 DUP3 PUSH1 0x0 JUMPDEST PUSH1 0x5 DUP2 LT ISZERO PUSH2 0x1519 JUMPI DUP3 MLOAD DUP3 MSTORE PUSH1 0x20 SWAP3 DUP4 ADD SWAP3 SWAP1 SWAP2 ADD SWAP1 PUSH1 0x1 ADD PUSH2 0x14FA JUMP JUMPDEST POP POP POP PUSH1 0x20 DUP4 ADD MLOAD ISZERO ISZERO PUSH1 0xA0 DUP4 ADD MSTORE SWAP3 SWAP2 POP POP JUMP JUMPDEST PUSH1 0xA0 DUP2 ADD DUP2 DUP4 PUSH1 0x0 JUMPDEST PUSH1 0x5 DUP2 LT ISZERO PUSH2 0x1432 JUMPI DUP2 MLOAD DUP4 MSTORE PUSH1 0x20 SWAP3 DUP4 ADD SWAP3 SWAP1 SWAP2 ADD SWAP1 PUSH1 0x1 ADD PUSH2 0x1537 JUMP JUMPDEST PUSH1 0x0 PUSH1 0x20 DUP3 DUP5 SUB SLT ISZERO PUSH2 0x1568 JUMPI PUSH1 0x0 DUP1 REVERT JUMPDEST DUP2 CALLDATALOAD PUSH8 0xFFFFFFFFFFFFFFFF DUP1 DUP3 GT ISZERO PUSH2 0x1580 JUMPI PUSH1 0x0 DUP1 REVERT JUMPDEST DUP2 DUP5 ADD SWAP2 POP DUP5 PUSH1 0x1F DUP4 ADD SLT PUSH2 0x1594 JUMPI PUSH1 0x0 DUP1 REVERT JUMPDEST DUP2 CALLDATALOAD DUP2 DUP2 GT ISZERO PUSH2 0x15A6 JUMPI PUSH2 0x15A6 PUSH2 0x1306 JUMP JUMPDEST PUSH1 0x40 MLOAD PUSH1 0x1F DUP3 ADD PUSH1 0x1F NOT SWAP1 DUP2 AND PUSH1 0x3F ADD AND DUP2 ADD SWAP1 DUP4 DUP3 GT DUP2 DUP4 LT OR ISZERO PUSH2 0x15CE JUMPI PUSH2 0x15CE PUSH2 0x1306 JUMP JUMPDEST DUP2 PUSH1 0x40 MSTORE DUP3 DUP2 MSTORE DUP8 PUSH1 0x20 DUP5 DUP8 ADD ADD GT ISZERO PUSH2 0x15E7 JUMPI PUSH1 0x0 DUP1 REVERT JUMPDEST DUP3 PUSH1 0x20 DUP7 ADD PUSH1 0x20 DUP4 ADD CALLDATACOPY PUSH1 0x0 SWAP3 DUP2 ADD PUSH1 0x20 ADD SWAP3 SWAP1 SWAP3 MSTORE POP SWAP6 SWAP5 POP POP POP POP POP JUMP JUMPDEST PUSH4 0x4E487B71 PUSH1 0xE0 SHL PUSH1 0x0 MSTORE PUSH1 0x32 PUSH1 0x4 MSTORE PUSH1 0x24 PUSH1 0x0 REVERT JUMPDEST PUSH1 0x0 DUP1 PUSH1 0x40 DUP4 DUP6 SUB SLT ISZERO PUSH2 0x1630 JUMPI PUSH1 0x0 DUP1 REVERT JUMPDEST POP POP DUP1 MLOAD PUSH1 0x20 SWAP1 SWAP2 ADD MLOAD SWAP1 SWAP3 SWAP1 SWAP2 POP JUMP JUMPDEST PUSH4 0x4E487B71 PUSH1 0xE0 SHL PUSH1 0x0 MSTORE PUSH1 0x11 PUSH1 0x4 MSTORE PUSH1 0x24 PUSH1 0x0 REVERT JUMPDEST DUP1 DUP3 ADD DUP1 DUP3 GT ISZERO PUSH2 0x218 JUMPI PUSH2 0x218 PUSH2 0x1641 JUMP JUMPDEST PUSH1 0x0 PUSH1 0x1 DUP3 ADD PUSH2 0x167C JUMPI PUSH2 0x167C PUSH2 0x1641 JUMP JUMPDEST POP PUSH1 0x1 ADD SWAP1 JUMP JUMPDEST DUP1 DUP3 MUL DUP2 ISZERO DUP3 DUP3 DIV DUP5 EQ OR PUSH2 0x218 JUMPI PUSH2 0x218 PUSH2 0x1641 JUMP JUMPDEST PUSH1 0x0 DUP3 MLOAD PUSH1 0x0 JUMPDEST DUP2 DUP2 LT ISZERO PUSH2 0x16BB JUMPI PUSH1 0x20 DUP2 DUP7 ADD DUP2 ADD MLOAD DUP6 DUP4 ADD MSTORE ADD PUSH2 0x16A1 JUMP JUMPDEST POP PUSH1 0x0 SWAP3 ADD SWAP2 DUP3 MSTORE POP SWAP2 SWAP1 POP JUMP INVALID LOG2 PUSH5 0x6970667358 0x22 SLT KECCAK256 0xCA CODESIZE 0xCE 0xB9 PUSH7 0xD9C9F94E250451 0xA6 RETURN ISZERO 0x4F 0xEC SWAP5 0xEC CALLCODE 0x5F TIMESTAMP 0x2B CODESIZE 0xDC 0x25 BASEFEE 0xE1 PUSH18 0xDD8E6464736F6C6343000811003300000000 ",
  "sha1": "b3e609f39b900bddd2c0e8e460a31af9d39a7241",
  "source": "// SPDX-License-Identifier: MIT\npragma solidity ^0.8.0;\n\nimport \"contracts/Uint512.sol\";\n\n    /*\n    theory and formules\n    _a = a * R mod N = MontgomeryMulMod(a, R^2) _____> Montgomery form\n    a = _a * R^(_1) mod N = MontgomeryMulMod(_a, 1) _____> back to normal form\n    T = _a * _b mod N = a * b * R^2 mod N _____> double_width intermediate product \n    _z = T * R^(_1) mod N _____> Mont reduction\n    res = a * b = _z = (_a * _b * R^(_1)) mod N    ___> final result\n    */\n\n    /*\n    Reduction:\n    R*Rp + N*Np = 1 ____> find Rp1 and Np1 with python script of eucledian algo\n    N*Np1 = _1 mod R\n    if T mod R = x, then T*N*Np1 = _x mod R ____> T + T*N*Np1 = 0 mod R\n    have to find m = T*Np1, then T + m*N will be divided by R (right shift)\n    */\n\ncontract Montgomery {\n\n    Uint512 public uint512;\n\n    uint256 constant MAX_INT = 0xffffffffffffffffffffffffffffffffffffffffffffffffffffffffffffffff;\n\n    struct Curve {\n        uint256[5] params;\n        bool flag;\n    }\n    mapping(bytes => Curve) public curves;\n\n    // structure: abi.encode(n0, n1) => uint256 array [R_power(256 or 512), R_sq_0, R_sq_1, Np_0, Np_1]\n    // data from this website: https://neuromancer.sk/std/gost/id-GostR3410-2001-CryptoPro-C-ParamSet#\n    uint256[5] gost256 = [\n        256,\n        0x6e749e5b503b112ac0db8b05c83ad16a4af1f8ac73c6c555ecaed44677f7f28d,\n        0x0,\n        0x67d7afac65649e8268bfc2dc2297e1496da5b0aba16fb01066ff43a234713e85,\n        0x1\n    ];\n    uint256[5] gost512 = [\n        512,\n        0xe23c04dc39c8c930929e0924887fab48561500cb39a9b66bb03174e56db6ba90,\n        0x3057350e3201bb3680bc9d923a08f9a9d70dfcccc3dd062f0cc44723bcc36979,\n        0x3d86f5322949b920af0456575d456e174c82666f7bb16c1e50bc7d084a21aae1,\n        0xc291fbb5ae9c1e83f29f69d34ae1cb8a6d70de8fa5e5a4cb7f17bf1c5533cda9\n    ];\n    uint256[5] id_tc26_gost_3410_12_512_paramSet = [\n        512,\n        0xa06b76a2bae6fc8680b08b27e9cebbc7b55cd33800ab10e6546775b92106e979,\n        0xb66ae6c00bebd6c3ee028bf9d8ed3314bab8be5dd7b1651dc7433579e382956f,\n        0xccff552d202458521f1d429025bb495fb37706a5a530c4bc02ccc1665d51f223,\n        0x25169b543b2963edaee66a23e4cd5a9526e51f000112cd25a4cf4d9022aa989\n    ];\n    uint256[5] id_tc26_gost_3410_12_512_paramSetB = [\n        512,\n        0xb1532b08f1e25e5cc55538cf997acac4267d56905313f38b3163da9749d3cb8b,\n        0x21c65cda4cadccc0f96232d7a52b18fe9f96043308eeb401c385980eb887a3f9,\n        0x9297f6e5632c895c82d4c0daebb2fb229987c4851656f7d3c07d62492cbac26b,\n        0x7a2fb684ff4de946896af19d2ea094e16cb6299541678cea2c3067b7148187c7\n    ];\n    uint256[5] id_tc26_gost_3410_2012_256_paramSetA = [\n        256,\n        0xfb1fbc48b0f0eb4d0593365f9384bcd7556091c4805caa457cb446240dd1710,\n        0x0,\n        0x5260f9d578e2604002f9ff5f350498dfaa48059b4f8d1109035bdd1aeafdb0a9,\n        0x1\n    ];\n    uint256[5] id_tc26_gost_3410_2012_512_paramSetC = [\n        512,\n        0x542f8f3fa490666ad016086ec2d4f903e79280282d956fcae58fa18ee6ca4eb6,\n        0x394c72054d8503be8910352f3bea2192314e0a57f445b20e04f77045db49adc9,\n        0xa741bfb17f50bc09f931fcfca507f4363767eb6752418a840ed9d8e0b6624e1b,\n        0xe5ca44e2a518d364dfdea839b87a0debdfef40d8420f3680a2e06451b9269fcc\n    ];\n    uint256[5] id_GostR3410_2001_CryptoPro_A_ParamSet = [\n        256,\n        0x551fe9cb451179dbf74885d08a3714c6fb07f8222e76dd529ac2d7858e79a469,\n        0x0,\n        0xc04b107ff7e9db33bccb5ba48253457bc84a073d7cf985b09ee6ea0b57c7da65,\n        0x0\n    ];\n    uint256[5] id_GostR3410_2001_CryptoPro_B_ParamSet = [\n        256,\n        0x9d1d2c4e50824664a2e7e2f6882cf102a3104a7ea43e85529b721f4e6cd7823,\n        0x0,\n        0x72a15d7fcb9bae40ee0e6fd42c6930fa4b51be0a5c35b7edca89614990611a91,\n        0x1\n    ];\n    uint256[5] id_GostR3410_2001_CryptoPro_C_ParamSet = [\n        256,\n        0x7aa61b49a49d4759c67e5d0ee96e8ed304fda8694afda24be94faab66aba180e,\n        0x0,\n        0x74f56b1c98a76d0c091e6cb4728e451e500f146f349d7d87a1c6af0a552f7577,\n        0x1\n    ];\n\n\n    \n\n    function set_curves() public {\n        curves[abi.encode(\n            0x8000000000000000000000000000000150fe8a1892976154c59cfc193accf5b3,\n            0x0\n        )] = Curve(gost256, true);\n        curves[abi.encode(\n            0xa82f2d7ecb1dbac719905c5eecc423f1d86e25edbe23c595d644aaf187e6e6df,\n            0x4531acd1fe0023c7550d267b6b2fee80922b14b2ffb90f04d4eb7c09b5d2d15d\n        )] = Curve(gost512, true);\n        curves[abi.encode(\n            0x27e69532f48d89116ff22b8d4e0560609b4b38abfad2b85dcacdb1411f10b275,\n            0xffffffffffffffffffffffffffffffffffffffffffffffffffffffffffffffff\n        )] = Curve(id_tc26_gost_3410_12_512_paramSet, true);\n        curves[abi.encode(\n            0x49a1ec142565a545acfdb77bd9d40cfa8b996712101bea0ec6346c54374f25bd,\n            0x8000000000000000000000000000000000000000000000000000000000000001\n        )] = Curve(id_tc26_gost_3410_12_512_paramSetB, true);\n        curves[abi.encode(\n            0x400000000000000000000000000000000fd8cddfc87b6635c115af556c360c67,\n            0x0\n        )] = Curve(id_tc26_gost_3410_2012_256_paramSetA, true);\n        curves[abi.encode(\n            0xc98cdba46506ab004c33a9ff5147502cc8eda9e7a769a12694623cef47f023ed,\n            0x3fffffffffffffffffffffffffffffffffffffffffffffffffffffffffffffff\n        )] = Curve(id_tc26_gost_3410_2012_512_paramSetC, true);\n        curves[abi.encode(\n            0xffffffffffffffffffffffffffffffff6c611070995ad10045841b09b761b893,\n            0x0\n        )] = Curve(id_GostR3410_2001_CryptoPro_A_ParamSet, true);\n        curves[abi.encode(\n            0x800000000000000000000000000000015f700cfff1a624e5e497161bcc8a198f,\n            0x0\n        )] = Curve(id_GostR3410_2001_CryptoPro_B_ParamSet, true);\n        curves[abi.encode(\n            0x9b9f605f5a858107ab1ec85e6b41c8aa582ca3511eddfb74f02f3a6598980bb9,\n            0x0\n        )] = Curve(id_GostR3410_2001_CryptoPro_C_ParamSet, true);\n    }\n\n\n    // use only once, when need several operations with same modulo\n    function find_curve(uint256 n0, uint256 n1) \n    public returns (uint256[5] memory curve) {\n        Curve memory c = curves[abi.encode(n0, n1)];\n        if(c.flag == false) {\n            c = calc_new_curve(n0, n1);\n        }\n        // n0, n1, R_sq0, R_sq1, n_prime0 \n        curve = [n0, n1, c.params[1], c.params[2], c.params[3]];\n    }\n\n\n\n    function mont_mulmod(uint256 a0, uint256 a1, uint256 b0, uint256 b1, uint256[5] memory curve) \n    public returns (uint256, uint256) {\n        // uint256[2] memory R_sq = [curve[2], curve[3]];\n        // uint256[2] memory n = [curve[0], curve[1]];\n\n        // (a, b) -> to mont form\n        // uint256 n_prime = curve.params[3];\n        uint256[2] memory _a = to_mont([a0, a1], curve);\n        uint256[2] memory _b = to_mont([b0, b1], curve);\n        // Mon(_a, _b)\n        uint256[2] memory _res = Mon(_a, _b, curve);\n        // _res -> to norm form\n        uint256[2] memory res = to_norm(_res, curve);\n        return (res[0], res[1]);\n    }\n \n\n    function to_mont(uint256[2] memory a, uint256[5] memory curve) \n    public  returns (uint256[2] memory) {\n        return Mon(a, [curve[2], curve[3]], curve);\n    }\n\n    function to_norm(uint256[2] memory a, uint256[5] memory curve) \n    public  returns (uint256[2] memory) {\n        return Mon(a, [uint256 (1), uint256 (0)], curve);\n    }\n\n\n    function calc_new_curve(uint256 n0, uint256 n1) \n    public returns (Curve memory) {\n        // РїРµСЂРµРїРёСЃР°С‚СЊ РєРѕРґ СЃ РїРёС‚РѕРЅР° Рё СЃСЂР°РІРЅРёС‚СЊ РіР°Р·\n        uint256[5] memory params;\n        if (n1 == 0) params[0] = 256;\n        else params[0] = 512;\n        params[1] = uint256(0);\n        params[2] = uint256(0);\n        params[3] = uint256(0);\n        params[4] = uint256(0);\n\n        return(Curve(params, true));\n\n\n        // extended eucledian algorythm (R, n)\n        // (uint256 prev_x0, uint256 prev_x1) = (1, 0);\n        // (uint256 x0, uint256 x1) = (0, 0);\n        // (uint256 prev_y0, uint256 prev_y1) = (0, 0);\n        // (uint256 y0, uint256 y1) = (1, 0);\n\n    // СЃР»РѕР¶РЅРѕ, РїРѕС‚РѕРјСѓ С‡С‚Рѕ R = 2**512 РІС‹С…РѕРґРёС‚ Р·Р° РїСЂРµРґРµР»С‹\n\n    // def extended_euclidean(R, n):\n//     previous_x, x = 1, 0\n//     previous_y, y = 0, 1\n//     while b:\n//         q = R//n\n//         x, previous_x = previous_x - q*x, x\n//         y, previous_y = previous_y - q*y, y\n//         R, n = n, R % n\n//     return R, previous_x, previous_y\n// returning R is only for checking if function ended correctly (R == 1)\n\n\n        // curves[abi.encode(n0, n1)] = Curve(params, true);\n    }\n\n\n\n\n    // Mon(_a, _b) = _c; to_norm(_c) = c = ab mod n - final result\n    // Mon(a, R^2) = _a\n    // Mon(_a, 1) = a\n    function Mon(uint256[2] memory a, uint256[2] memory b, uint256[5] memory curve) \n    public  returns(uint256[2] memory r) \n    {\n        // _temp = a*b (1024_bit) 3 _ highest, 0 _ lowest bits\n        uint256[2] memory n = [curve[0], curve[1]];\n        uint256[4] memory temp;\n        uint256 hi; uint256 lo;\n        uint i; uint j; uint carry;\n\n        for(i = 0; i !=2; ++i) {\n            carry = 0;\n            for(j = 0; j != 2; ++j) {\n                (lo, hi) = uint512.mul256x256(a[j], b[i]);\n                (lo, hi) = uint512.add512x512(lo, hi, temp[i+j], 0);\n                (lo, hi) = uint512.add512x512(lo, hi, carry, 0);\n                // powers: (2**256-1)*(2**256-1) + (2**256-1) + (2**256-1) = 2**512-1 => no overflow\n                temp[i+j] = lo;\n                carry = hi;\n            }\n            temp[i+2] += carry;\n            uint256 m = temp[i] * curve[4];\n            // (uint256 m, ) = uint512.mul256x256(temp[i], n_prime);  // dealing with overflow\n            // uint256 m = temp[i]*n_prime;\n            carry = 0;\n            for(j = 0; j != 2; ++j) {\n                (lo, hi) = uint512.mul256x256(m, n[j]);\n                (lo, hi) = uint512.add512x512(lo, hi, temp[i+j], 0);\n                (lo, hi) = uint512.add512x512(lo, hi, carry, 0);\n                // powers: (2**256-1)*(2**256-1) + (2**256-1) + (2**256-1) = 2**512-1 => no overflow\n                temp[i+j] = lo;\n                carry = hi;\n            }\n            temp[i+2] += carry;\n        }\n        uint256[2] memory dec;\n        uint256 borrow = 0; uint256 diff; \n        bool borrow_t0;\n        for(j = 0; j != 2; ++j) {\n            if (temp[j] > n[j] + borrow) {\n                borrow_t0 = false;\n            }\n            else {\n                borrow_t0 = true;\n            }\n            unchecked { diff = temp[j] - n[j] - borrow; }\n            dec[j] = diff;\n            borrow = borrow_t0 ? 1 : 0;\n        }\n        // wrapping_neg() in Rust\n        // google VirtualMachineError: revert: Integer overflow and how to use unchecked {} in solidity\n        uint256[2] memory select_temp = [0, MAX_INT];\n        if(borrow == 0) {\n            select_temp = [0, MAX_INT];\n        } else {  // if borrow == 1\n            select_temp = [MAX_INT, 0];\n        }\n        for(j = 0; j != 2; ++j) {\n            r[j] = (select_temp[0] & temp[j+2]) | (select_temp[1] & dec[j]);\n        }\n        return r;\n    }\n\n\n\n\n}\n",
  "sourcePath": "contracts/Montgomery.sol",
  "type": "contract"
}