{
  "abi": [
    {
      "inputs": [
        {
          "internalType": "uint256",
          "name": "a0",
          "type": "uint256"
        },
        {
          "internalType": "uint256",
          "name": "a1",
          "type": "uint256"
        },
        {
          "internalType": "uint256",
          "name": "b0",
          "type": "uint256"
        },
        {
          "internalType": "uint256",
          "name": "b1",
          "type": "uint256"
        }
      ],
      "name": "add512x512",
      "outputs": [
        {
          "internalType": "uint256",
          "name": "r0",
          "type": "uint256"
        },
        {
          "internalType": "uint256",
          "name": "r1",
          "type": "uint256"
        }
      ],
      "stateMutability": "pure",
      "type": "function"
    },
    {
      "inputs": [
        {
          "internalType": "uint256",
          "name": "a0",
          "type": "uint256"
        },
        {
          "internalType": "uint256",
          "name": "a1",
          "type": "uint256"
        },
        {
          "internalType": "uint256",
          "name": "b0",
          "type": "uint256"
        },
        {
          "internalType": "uint256",
          "name": "b1",
          "type": "uint256"
        },
        {
          "internalType": "uint256",
          "name": "n0",
          "type": "uint256"
        },
        {
          "internalType": "uint256",
          "name": "n1",
          "type": "uint256"
        }
      ],
      "name": "add512x512mod",
      "outputs": [
        {
          "internalType": "uint256",
          "name": "r0",
          "type": "uint256"
        },
        {
          "internalType": "uint256",
          "name": "r1",
          "type": "uint256"
        }
      ],
      "stateMutability": "pure",
      "type": "function"
    },
    {
      "inputs": [
        {
          "internalType": "bytes",
          "name": "data",
          "type": "bytes"
        }
      ],
      "name": "bytes_to_uint512",
      "outputs": [
        {
          "internalType": "uint256",
          "name": "m0",
          "type": "uint256"
        },
        {
          "internalType": "uint256",
          "name": "m1",
          "type": "uint256"
        }
      ],
      "stateMutability": "pure",
      "type": "function"
    },
    {
      "inputs": [
        {
          "internalType": "uint256",
          "name": "a0",
          "type": "uint256"
        },
        {
          "internalType": "uint256",
          "name": "a1",
          "type": "uint256"
        },
        {
          "internalType": "uint256",
          "name": "b",
          "type": "uint256"
        }
      ],
      "name": "div512x256",
      "outputs": [
        {
          "internalType": "uint256",
          "name": "r",
          "type": "uint256"
        },
        {
          "internalType": "uint256",
          "name": "rem",
          "type": "uint256"
        }
      ],
      "stateMutability": "pure",
      "type": "function"
    },
    {
      "inputs": [
        {
          "internalType": "uint256",
          "name": "a0",
          "type": "uint256"
        },
        {
          "internalType": "uint256",
          "name": "a1",
          "type": "uint256"
        },
        {
          "internalType": "uint256",
          "name": "b",
          "type": "uint256"
        },
        {
          "internalType": "uint256",
          "name": "rem",
          "type": "uint256"
        }
      ],
      "name": "divRem512x256",
      "outputs": [
        {
          "internalType": "uint256",
          "name": "r",
          "type": "uint256"
        }
      ],
      "stateMutability": "pure",
      "type": "function"
    },
    {
      "inputs": [
        {
          "internalType": "uint256",
          "name": "x0",
          "type": "uint256"
        },
        {
          "internalType": "uint256",
          "name": "x1",
          "type": "uint256"
        },
        {
          "internalType": "uint256",
          "name": "n0",
          "type": "uint256"
        },
        {
          "internalType": "uint256",
          "name": "n1",
          "type": "uint256"
        }
      ],
      "name": "divmod512",
      "outputs": [
        {
          "internalType": "uint256",
          "name": "res0",
          "type": "uint256"
        },
        {
          "internalType": "uint256",
          "name": "res1",
          "type": "uint256"
        },
        {
          "internalType": "uint256",
          "name": "rem0",
          "type": "uint256"
        },
        {
          "internalType": "uint256",
          "name": "rem1",
          "type": "uint256"
        }
      ],
      "stateMutability": "pure",
      "type": "function"
    },
    {
      "inputs": [],
      "name": "empty",
      "outputs": [],
      "stateMutability": "pure",
      "type": "function"
    },
    {
      "inputs": [
        {
          "internalType": "uint256",
          "name": "a0",
          "type": "uint256"
        },
        {
          "internalType": "uint256",
          "name": "a1",
          "type": "uint256"
        },
        {
          "internalType": "uint256",
          "name": "b0",
          "type": "uint256"
        },
        {
          "internalType": "uint256",
          "name": "b1",
          "type": "uint256"
        }
      ],
      "name": "eq512x512",
      "outputs": [
        {
          "internalType": "bool",
          "name": "r",
          "type": "bool"
        }
      ],
      "stateMutability": "pure",
      "type": "function"
    },
    {
      "inputs": [
        {
          "internalType": "uint256",
          "name": "a0",
          "type": "uint256"
        },
        {
          "internalType": "uint256",
          "name": "a1",
          "type": "uint256"
        },
        {
          "internalType": "uint256",
          "name": "b0",
          "type": "uint256"
        },
        {
          "internalType": "uint256",
          "name": "b1",
          "type": "uint256"
        }
      ],
      "name": "gt512x512",
      "outputs": [
        {
          "internalType": "bool",
          "name": "r",
          "type": "bool"
        }
      ],
      "stateMutability": "pure",
      "type": "function"
    },
    {
      "inputs": [
        {
          "internalType": "uint256",
          "name": "a0",
          "type": "uint256"
        },
        {
          "internalType": "uint256",
          "name": "a1",
          "type": "uint256"
        }
      ],
      "name": "isZero512",
      "outputs": [
        {
          "internalType": "bool",
          "name": "r",
          "type": "bool"
        }
      ],
      "stateMutability": "pure",
      "type": "function"
    },
    {
      "inputs": [
        {
          "internalType": "uint256",
          "name": "a0",
          "type": "uint256"
        },
        {
          "internalType": "uint256",
          "name": "a1",
          "type": "uint256"
        },
        {
          "internalType": "uint256",
          "name": "n",
          "type": "uint256"
        }
      ],
      "name": "lshift512",
      "outputs": [
        {
          "internalType": "uint256",
          "name": "r0",
          "type": "uint256"
        },
        {
          "internalType": "uint256",
          "name": "r1",
          "type": "uint256"
        }
      ],
      "stateMutability": "pure",
      "type": "function"
    },
    {
      "inputs": [
        {
          "internalType": "uint256",
          "name": "a0",
          "type": "uint256"
        },
        {
          "internalType": "uint256",
          "name": "a1",
          "type": "uint256"
        },
        {
          "internalType": "uint256",
          "name": "b0",
          "type": "uint256"
        },
        {
          "internalType": "uint256",
          "name": "b1",
          "type": "uint256"
        }
      ],
      "name": "lt512x512",
      "outputs": [
        {
          "internalType": "bool",
          "name": "r",
          "type": "bool"
        }
      ],
      "stateMutability": "pure",
      "type": "function"
    },
    {
      "inputs": [
        {
          "internalType": "uint256",
          "name": "x0",
          "type": "uint256"
        },
        {
          "internalType": "uint256",
          "name": "x1",
          "type": "uint256"
        },
        {
          "internalType": "uint256",
          "name": "n",
          "type": "uint256"
        }
      ],
      "name": "mod256",
      "outputs": [
        {
          "internalType": "uint256",
          "name": "rem",
          "type": "uint256"
        }
      ],
      "stateMutability": "pure",
      "type": "function"
    },
    {
      "inputs": [
        {
          "internalType": "uint256",
          "name": "x0",
          "type": "uint256"
        },
        {
          "internalType": "uint256",
          "name": "x1",
          "type": "uint256"
        },
        {
          "internalType": "uint256",
          "name": "n0",
          "type": "uint256"
        },
        {
          "internalType": "uint256",
          "name": "n1",
          "type": "uint256"
        }
      ],
      "name": "mod512",
      "outputs": [
        {
          "internalType": "uint256",
          "name": "rem0",
          "type": "uint256"
        },
        {
          "internalType": "uint256",
          "name": "rem1",
          "type": "uint256"
        }
      ],
      "stateMutability": "pure",
      "type": "function"
    },
    {
      "inputs": [
        {
          "internalType": "uint256[4]",
          "name": "a",
          "type": "uint256[4]"
        },
        {
          "internalType": "uint256",
          "name": "n0",
          "type": "uint256"
        },
        {
          "internalType": "uint256",
          "name": "n1",
          "type": "uint256"
        }
      ],
      "name": "mod512from1024",
      "outputs": [
        {
          "internalType": "uint256",
          "name": "res0",
          "type": "uint256"
        },
        {
          "internalType": "uint256",
          "name": "res1",
          "type": "uint256"
        }
      ],
      "stateMutability": "nonpayable",
      "type": "function"
    },
    {
      "inputs": [
        {
          "internalType": "uint256",
          "name": "a",
          "type": "uint256"
        },
        {
          "internalType": "uint256",
          "name": "b",
          "type": "uint256"
        }
      ],
      "name": "mul256x256",
      "outputs": [
        {
          "internalType": "uint256",
          "name": "r0",
          "type": "uint256"
        },
        {
          "internalType": "uint256",
          "name": "r1",
          "type": "uint256"
        }
      ],
      "stateMutability": "pure",
      "type": "function"
    },
    {
      "inputs": [
        {
          "internalType": "uint256",
          "name": "a0",
          "type": "uint256"
        },
        {
          "internalType": "uint256",
          "name": "a1",
          "type": "uint256"
        },
        {
          "internalType": "uint256",
          "name": "b",
          "type": "uint256"
        }
      ],
      "name": "mul512x256",
      "outputs": [
        {
          "internalType": "uint256",
          "name": "r0",
          "type": "uint256"
        },
        {
          "internalType": "uint256",
          "name": "r1",
          "type": "uint256"
        }
      ],
      "stateMutability": "pure",
      "type": "function"
    },
    {
      "inputs": [
        {
          "internalType": "uint256",
          "name": "a0",
          "type": "uint256"
        },
        {
          "internalType": "uint256",
          "name": "a1",
          "type": "uint256"
        },
        {
          "internalType": "uint256",
          "name": "b0",
          "type": "uint256"
        },
        {
          "internalType": "uint256",
          "name": "b1",
          "type": "uint256"
        }
      ],
      "name": "mul512x512res1024",
      "outputs": [
        {
          "internalType": "uint256[4]",
          "name": "res",
          "type": "uint256[4]"
        }
      ],
      "stateMutability": "nonpayable",
      "type": "function"
    },
    {
      "inputs": [
        {
          "internalType": "uint256",
          "name": "a",
          "type": "uint256"
        },
        {
          "internalType": "uint256",
          "name": "b",
          "type": "uint256"
        },
        {
          "internalType": "uint256",
          "name": "c",
          "type": "uint256"
        }
      ],
      "name": "mulMod256x256",
      "outputs": [
        {
          "internalType": "uint256",
          "name": "r0",
          "type": "uint256"
        },
        {
          "internalType": "uint256",
          "name": "r1",
          "type": "uint256"
        },
        {
          "internalType": "uint256",
          "name": "r2",
          "type": "uint256"
        }
      ],
      "stateMutability": "pure",
      "type": "function"
    },
    {
      "inputs": [
        {
          "internalType": "uint256",
          "name": "a0",
          "type": "uint256"
        },
        {
          "internalType": "uint256",
          "name": "a1",
          "type": "uint256"
        },
        {
          "internalType": "uint256",
          "name": "b0",
          "type": "uint256"
        },
        {
          "internalType": "uint256",
          "name": "b1",
          "type": "uint256"
        },
        {
          "internalType": "uint256",
          "name": "n0",
          "type": "uint256"
        },
        {
          "internalType": "uint256",
          "name": "n1",
          "type": "uint256"
        }
      ],
      "name": "mulmod512x512",
      "outputs": [
        {
          "internalType": "uint256",
          "name": "res0",
          "type": "uint256"
        },
        {
          "internalType": "uint256",
          "name": "res1",
          "type": "uint256"
        }
      ],
      "stateMutability": "nonpayable",
      "type": "function"
    },
    {
      "inputs": [
        {
          "internalType": "uint256",
          "name": "a0",
          "type": "uint256"
        },
        {
          "internalType": "uint256",
          "name": "a1",
          "type": "uint256"
        },
        {
          "internalType": "uint256",
          "name": "n",
          "type": "uint256"
        }
      ],
      "name": "rshift512",
      "outputs": [
        {
          "internalType": "uint256",
          "name": "r0",
          "type": "uint256"
        },
        {
          "internalType": "uint256",
          "name": "r1",
          "type": "uint256"
        }
      ],
      "stateMutability": "pure",
      "type": "function"
    },
    {
      "inputs": [
        {
          "internalType": "uint256",
          "name": "a0",
          "type": "uint256"
        },
        {
          "internalType": "uint256",
          "name": "a1",
          "type": "uint256"
        },
        {
          "internalType": "uint256",
          "name": "b0",
          "type": "uint256"
        },
        {
          "internalType": "uint256",
          "name": "b1",
          "type": "uint256"
        }
      ],
      "name": "sub512x512",
      "outputs": [
        {
          "internalType": "uint256",
          "name": "r0",
          "type": "uint256"
        },
        {
          "internalType": "uint256",
          "name": "r1",
          "type": "uint256"
        }
      ],
      "stateMutability": "pure",
      "type": "function"
    },
    {
      "inputs": [
        {
          "internalType": "uint256",
          "name": "a0",
          "type": "uint256"
        },
        {
          "internalType": "uint256",
          "name": "a1",
          "type": "uint256"
        },
        {
          "internalType": "uint256",
          "name": "b0",
          "type": "uint256"
        },
        {
          "internalType": "uint256",
          "name": "b1",
          "type": "uint256"
        },
        {
          "internalType": "uint256",
          "name": "n0",
          "type": "uint256"
        },
        {
          "internalType": "uint256",
          "name": "n1",
          "type": "uint256"
        }
      ],
      "name": "sub512x512mod",
      "outputs": [
        {
          "internalType": "uint256",
          "name": "r0",
          "type": "uint256"
        },
        {
          "internalType": "uint256",
          "name": "r1",
          "type": "uint256"
        }
      ],
      "stateMutability": "pure",
      "type": "function"
    },
    {
      "inputs": [
        {
          "internalType": "uint256",
          "name": "m0",
          "type": "uint256"
        },
        {
          "internalType": "uint256",
          "name": "m1",
          "type": "uint256"
        }
      ],
      "name": "uint512_to_bytes",
      "outputs": [
        {
          "internalType": "bytes",
          "name": "",
          "type": "bytes"
        }
      ],
      "stateMutability": "pure",
      "type": "function"
    }
  ],
  "bytecode": "608060405234801561001057600080fd5b50610f54806100206000396000f3fe608060405234801561001057600080fd5b50600436106101585760003560e01c80637f36876e116100c3578063c2afa2731161007c578063c2afa2731461036d578063d46c610014610380578063d75cadce14610396578063ea651ff2146103a9578063f2a75fe4146103ca578063fac427bb146103cc57600080fd5b80637f36876e146102cb578063957e07c5146102de5780639594adef146102ff57806399ed504f1461032d5780639ea5a80114610340578063a32c547a1461035357600080fd5b80634301b89e116101155780634301b89e14610220578063493b02bf1461023357806353fe3ac01461024657806368643488146102705780636aa61749146102a35780637402cceb146102b657600080fd5b80631376e8691461015d57806314d6088214610186578063202388a0146101b6578063230b4ac7146101c957806330eb37ee146101ec57806337e1a4451461020d575b600080fd5b61017061016b366004610beb565b6103ec565b60405161017d9190610c1d565b60405180910390f35b6101a1610194366004610beb565b9083019392841091010190565b6040805192835260208301919091520161017d565b6101a16101c4366004610c4e565b61050a565b6101a16101d7366004610c91565b82811b936101008290039390931c91901b0190565b6101ff6101fa366004610c91565b610568565b60405190815260200161017d565b6101a161021b366004610cd3565b610584565b6101a161022e366004610c91565b6105a4565b6101a1610241366004610c4e565b6105c9565b610260610254366004610beb565b92108183141691111790565b604051901515815260200161017d565b61028361027e366004610beb565b6105f2565b60408051948552602085019390935291830152606082015260800161017d565b6101a16102b1366004610d84565b61081a565b6102606102c4366004610e10565b1590151690565b6101a16102d9366004610e10565b6108b4565b6101a16102ec366004610beb565b8184039491909310929091039190910390565b61031261030d366004610c91565b6108d3565b6040805193845260208401929092529082015260600161017d565b6101a161033b366004610c91565b6108fb565b6101a161034e366004610beb565b61098e565b610260610361366004610beb565b92118183141691101790565b6101a161037b366004610c4e565b610afc565b61026061038e366004610beb565b921491141690565b6101ff6103a4366004610beb565b610b2a565b6101a16103b7366004610c91565b91821c61010083900382901b0192911c90565b005b6103df6103da366004610e10565b610ba4565b60405161017d9190610e32565b6103f4610bcd565b600080808061040389886108b4565b6020870152855261041488886108b4565b604087015260208601805180830191829052919550909250821115610441578061043d81610eac565b9150505b61044b89876108b4565b60208701805180840191829052929650909450909250821115610476578061047281610eac565b9150505b60408501805182810191829052925081111561049457506001610498565b5060005b6040850180518481019182905292508211156104bc57806104b881610eac565b9150505b6104c688876108b4565b6060870152604086018051808301918290529195509092508211156104f357806104ef81610eac565b9150505b606085018051909101905250919695505050505050565b83860186811084870181019081881416878210171561053d5750508382038087039087108584108584030387030361055d565b838210838214168382101761055d57838203848310848303035b90925090505b965096945050505050565b6000816000198409905081838208905081848208949350505050565b6000808280602001905181019061059b9190610ec5565b94909350915050565b6000806000198386099483029593909202858510948690039490940393909301925050565b8386038487108487030386811181881489841116171561055d5781840382851082850303610557565b600080808084158615161561060657600080fd5b8615881516156106215750600092508291508690508561080f565b848714868914161561063f575060019250600091508190508061080f565b8786118786141687861117156106605750600092508291508690508561080f565b84600003610684576106738888886108fb565b90945060009350915082905061080f565b5050604080518082019091528481526020810184905286908690600160ff1b905b6106c78a8a8360005b6020020151846001602002015192118183141691101790565b80156106f657508180826106dd60016002610ee9565b600281106106ed576106ed610e80565b60200201511614155b1561072e576107228160005b60200201518260016020020151600182811b9360ff9390931c91901b0190565b602083015281526106a5565b80516020820151908b108a821416908a1017156107725761076a8160005b6020020151826001602002015160ff81901b600192831c0192911c90565b602083015281525b600095508594505b878410878414168784101761080c57600186811b9660ff1c95901b94909401936107bc84848360005b6020020151846001602002015192108183141691111790565b6107f5576107e984848360005b602002015184600160200201518184039491909310929091039190910390565b60019097179690945092505b61080081600061074c565b6020830152815261077a565b50505b945094509450949050565b60008061082b60001980868661098e565b60408701516001830194509184100191506000908190610855908860035b6020020151888861098e565b915091506108648484846105a4565b9092509050838201848110848301018851919550935061088690886001610849565b90925090508382018481108483010190945092506108a68484888861098e565b909890975095505050505050565b6000806000198385098385029250828110838203039150509250929050565b6000808060001985870985870293508381108482030392505083858709905093509350939050565b60008082600019850990508284820890508285820860008481038516808203819004600101838910909703968702978390038190049790971796909404939091508490036109545761094d8386610efc565b9150610986565b600260038402811880850282030280850282030280850282030280850282030280850282030280850290910302850291505b935093915050565b6000808215841516156109a057600080fd5b8415861516156109b4575084905083610af3565b82851484871416156109cb57506000905080610af3565b8584118584141685841117156109e5575084905083610af3565b82600003610a03576109f8868686610568565b600091509150610af3565b5050604080518082019091528281526020810182905284908490600160ff1b905b610a3188888360006106ae565b8015610a605750818082610a4760016002610ee9565b60028110610a5757610a57610e80565b60200201511614155b15610a7c57610a70816000610702565b60208301528152610a24565b80516020820151908910888214169088101715610aa657610a9e81600061074c565b602083015281525b8584108584141685841017610af057610ac284848360006107a3565b610ad957610ad384848360006107c9565b90945092505b610ae481600061074c565b60208301528152610aa6565b50505b94509492505050565b6000806000610b0d898989896103ec565b9050610b1a81868661081a565b9250925050965096945050505050565b6000828103831680820381900460010183871090950394850295839003819004959095179490920491838103610b6b57610b648386610efc565b9050610b9c565b5060026003830281188084028203028084028203028084028203028084028203028084028203028084029091030284025b949350505050565b604080516020810183905280820184905281518082038301815260609091019091525b92915050565b60405180608001604052806004906020820280368337509192915050565b60008060008060808587031215610c0157600080fd5b5050823594602084013594506040840135936060013592509050565b60808101818360005b6004811015610c45578151835260209283019290910190600101610c26565b50505092915050565b60008060008060008060c08789031215610c6757600080fd5b505084359660208601359650604086013595606081013595506080810135945060a0013592509050565b600080600060608486031215610ca657600080fd5b505081359360208301359350604090920135919050565b634e487b7160e01b600052604160045260246000fd5b600060208284031215610ce557600080fd5b813567ffffffffffffffff80821115610cfd57600080fd5b818401915084601f830112610d1157600080fd5b813581811115610d2357610d23610cbd565b604051601f8201601f19908116603f01168101908382118183101715610d4b57610d4b610cbd565b81604052828152876020848701011115610d6457600080fd5b826020860160208301376000928101602001929092525095945050505050565b600080600060c08486031215610d9957600080fd5b84601f850112610da857600080fd5b6040516080810181811067ffffffffffffffff82111715610dcb57610dcb610cbd565b604052806080860187811115610de057600080fd5b865b81811015610dfa578035835260209283019201610de2565b509197913596505060a094909401359392505050565b60008060408385031215610e2357600080fd5b50508035926020909101359150565b600060208083528351808285015260005b81811015610e5f57858101830151858201604001528201610e43565b506000604082860101526040601f19601f8301168501019250505092915050565b634e487b7160e01b600052603260045260246000fd5b634e487b7160e01b600052601160045260246000fd5b600060018201610ebe57610ebe610e96565b5060010190565b60008060408385031215610ed857600080fd5b505080516020909101519092909150565b81810381811115610bc757610bc7610e96565b600082610f1957634e487b7160e01b600052601260045260246000fd5b50049056fea26469706673582212202e91e06af6db17d1ca36a1220101e894959e7f190f431f8057186ebd3428247264736f6c63430008110033",
  "bytecodeSha1": "2fc2738a2fc79176371f4cd95d7740a13af87941",
  "compiler": {
    "evm_version": "istanbul",
    "optimizer": {
      "enabled": true,
      "runs": 200
    },
    "version": "0.8.17+commit.8df45f5f"
  },
  "contractName": "Uint512",
  "language": "Solidity",
  "natspec": {
    "kind": "dev",
    "methods": {
      "add512x512(uint256,uint256,uint256,uint256)": {
        "notice": "Calculates the difference of two uint512",
        "params": {
          "a0": "A uint256 representing the lower bits of the first addend.",
          "a1": "A uint256 representing the higher bits of the first addend.",
          "b0": "A uint256 representing the lower bits of the seccond addend.",
          "b1": "A uint256 representing the higher bits of the seccond addend."
        },
        "returns": {
          "r0": "The result as an uint512. r0 contains the lower bits.",
          "r1": "The higher bits of the result."
        }
      },
      "div512x256(uint256,uint256,uint256)": {
        "details": "For a detailed explaination see:   https://www.researchgate.net/public pureation/235765881_Efficient_long_division_via_Montgomery_multiply.",
        "notice": "Calculates the division of a 512 bit unsigned integer by a 256 bit integer. It  requires the result to fit in a 256 bit integer. ",
        "params": {
          "a0": "A uint256 representing the low bits of the nominator.",
          "a1": "A uint256 representing the high bits of the nominator.",
          "b": "A uint256 representing the denominator."
        },
        "returns": {
          "r": "The result as an uint256. Result must have at most 256 bit."
        }
      },
      "divRem512x256(uint256,uint256,uint256,uint256)": {
        "details": "For a detailed explaination see:   https://www.researchgate.net/public pureation/235765881_Efficient_long_division_via_Montgomery_multiply.",
        "notice": "Calculates the division of a 512 bit unsigned integer by a 256 bit integer. It  requires the remainder to be known and the result must fit in a 256 bit integer. ",
        "params": {
          "a0": "A uint256 representing the low bits of the nominator.",
          "a1": "A uint256 representing the high bits of the nominator.",
          "b": "A uint256 representing the denominator.",
          "rem": "A uint256 representing the remainder of the devision. The algorithm is cheaper to compute if the remainder is known. The remainder often be retreived cheaply using the mulmod and addmod operations."
        },
        "returns": {
          "r": "The result as an uint256. Result must have at most 256 bit."
        }
      },
      "mul256x256(uint256,uint256)": {
        "details": "Used the chinese remainder theoreme",
        "notice": "Calculates the product of two uint256",
        "params": {
          "a": "A uint256 representing the first factor.",
          "b": "A uint256 representing the second factor."
        },
        "returns": {
          "r0": "The result as an uint512. r0 contains the lower bits.",
          "r1": "The higher bits of the result."
        }
      },
      "mul512x256(uint256,uint256,uint256)": {
        "details": "Used the chinese remainder theoreme",
        "notice": "Calculates the product of two uint512 and uint256",
        "params": {
          "a0": "A uint256 representing lower bits of the first factor.",
          "a1": "A uint256 representing higher bits of the first factor.",
          "b": "A uint256 representing the second factor."
        },
        "returns": {
          "r0": "The result as an uint512. r0 contains the lower bits.",
          "r1": "The higher bits of the result."
        }
      },
      "mulMod256x256(uint256,uint256,uint256)": {
        "details": "Used the chinese remainder theoreme",
        "notice": "Calculates the product and remainder of two uint256",
        "params": {
          "a": "A uint256 representing the first factor.",
          "b": "A uint256 representing the second factor."
        },
        "returns": {
          "r0": "The result as an uint512. r0 contains the lower bits.",
          "r1": "The higher bits of the result.",
          "r2": "The remainder."
        }
      },
      "sub512x512(uint256,uint256,uint256,uint256)": {
        "notice": "Calculates the difference of two uint512",
        "params": {
          "a0": "A uint256 representing the lower bits of the minuend.",
          "a1": "A uint256 representing the higher bits of the minuend.",
          "b0": "A uint256 representing the lower bits of the subtrahend.",
          "b1": "A uint256 representing the higher bits of the subtrahend."
        },
        "returns": {
          "r0": "The result as an uint512. r0 contains the lower bits.",
          "r1": "The higher bits of the result."
        }
      }
    },
    "version": 1
  },
  "opcodes": "PUSH1 0x80 PUSH1 0x40 MSTORE CALLVALUE DUP1 ISZERO PUSH2 0x10 JUMPI PUSH1 0x0 DUP1 REVERT JUMPDEST POP PUSH1 0x4 CALLDATASIZE LT PUSH2 0x158 JUMPI PUSH1 0x0 CALLDATALOAD PUSH1 0xE0 SHR DUP1 PUSH4 0x7F36876E GT PUSH2 0xC3 JUMPI DUP1 PUSH4 0xC2AFA273 GT PUSH2 0x7C JUMPI DUP1 PUSH4 0xC2AFA273 EQ PUSH2 0x36D JUMPI DUP1 PUSH4 0xD46C6100 EQ PUSH2 0x380 JUMPI DUP1 PUSH4 0xD75CADCE EQ PUSH2 0x396 JUMPI DUP1 PUSH4 0xEA651FF2 EQ PUSH2 0x3A9 JUMPI DUP1 PUSH4 0xF2A75FE4 EQ PUSH2 0x3CA JUMPI DUP1 PUSH4 0xFAC427BB EQ PUSH2 0x3CC JUMPI PUSH1 0x0 DUP1 REVERT JUMPDEST DUP1 PUSH4 0x7F36876E EQ PUSH2 0x2CB JUMPI DUP1 PUSH4 0x957E07C5 EQ PUSH2 0x2DE JUMPI DUP1 PUSH4 0x9594ADEF EQ PUSH2 0x2FF JUMPI DUP1 PUSH4 0x99ED504F EQ PUSH2 0x32D JUMPI DUP1 PUSH4 0x9EA5A801 EQ PUSH2 0x340 JUMPI DUP1 PUSH4 0xA32C547A EQ PUSH2 0x353 JUMPI PUSH1 0x0 DUP1 REVERT JUMPDEST DUP1 PUSH4 0x4301B89E GT PUSH2 0x115 JUMPI DUP1 PUSH4 0x4301B89E EQ PUSH2 0x220 JUMPI DUP1 PUSH4 0x493B02BF EQ PUSH2 0x233 JUMPI DUP1 PUSH4 0x53FE3AC0 EQ PUSH2 0x246 JUMPI DUP1 PUSH4 0x68643488 EQ PUSH2 0x270 JUMPI DUP1 PUSH4 0x6AA61749 EQ PUSH2 0x2A3 JUMPI DUP1 PUSH4 0x7402CCEB EQ PUSH2 0x2B6 JUMPI PUSH1 0x0 DUP1 REVERT JUMPDEST DUP1 PUSH4 0x1376E869 EQ PUSH2 0x15D JUMPI DUP1 PUSH4 0x14D60882 EQ PUSH2 0x186 JUMPI DUP1 PUSH4 0x202388A0 EQ PUSH2 0x1B6 JUMPI DUP1 PUSH4 0x230B4AC7 EQ PUSH2 0x1C9 JUMPI DUP1 PUSH4 0x30EB37EE EQ PUSH2 0x1EC JUMPI DUP1 PUSH4 0x37E1A445 EQ PUSH2 0x20D JUMPI JUMPDEST PUSH1 0x0 DUP1 REVERT JUMPDEST PUSH2 0x170 PUSH2 0x16B CALLDATASIZE PUSH1 0x4 PUSH2 0xBEB JUMP JUMPDEST PUSH2 0x3EC JUMP JUMPDEST PUSH1 0x40 MLOAD PUSH2 0x17D SWAP2 SWAP1 PUSH2 0xC1D JUMP JUMPDEST PUSH1 0x40 MLOAD DUP1 SWAP2 SUB SWAP1 RETURN JUMPDEST PUSH2 0x1A1 PUSH2 0x194 CALLDATASIZE PUSH1 0x4 PUSH2 0xBEB JUMP JUMPDEST SWAP1 DUP4 ADD SWAP4 SWAP3 DUP5 LT SWAP2 ADD ADD SWAP1 JUMP JUMPDEST PUSH1 0x40 DUP1 MLOAD SWAP3 DUP4 MSTORE PUSH1 0x20 DUP4 ADD SWAP2 SWAP1 SWAP2 MSTORE ADD PUSH2 0x17D JUMP JUMPDEST PUSH2 0x1A1 PUSH2 0x1C4 CALLDATASIZE PUSH1 0x4 PUSH2 0xC4E JUMP JUMPDEST PUSH2 0x50A JUMP JUMPDEST PUSH2 0x1A1 PUSH2 0x1D7 CALLDATASIZE PUSH1 0x4 PUSH2 0xC91 JUMP JUMPDEST DUP3 DUP2 SHL SWAP4 PUSH2 0x100 DUP3 SWAP1 SUB SWAP4 SWAP1 SWAP4 SHR SWAP2 SWAP1 SHL ADD SWAP1 JUMP JUMPDEST PUSH2 0x1FF PUSH2 0x1FA CALLDATASIZE PUSH1 0x4 PUSH2 0xC91 JUMP JUMPDEST PUSH2 0x568 JUMP JUMPDEST PUSH1 0x40 MLOAD SWAP1 DUP2 MSTORE PUSH1 0x20 ADD PUSH2 0x17D JUMP JUMPDEST PUSH2 0x1A1 PUSH2 0x21B CALLDATASIZE PUSH1 0x4 PUSH2 0xCD3 JUMP JUMPDEST PUSH2 0x584 JUMP JUMPDEST PUSH2 0x1A1 PUSH2 0x22E CALLDATASIZE PUSH1 0x4 PUSH2 0xC91 JUMP JUMPDEST PUSH2 0x5A4 JUMP JUMPDEST PUSH2 0x1A1 PUSH2 0x241 CALLDATASIZE PUSH1 0x4 PUSH2 0xC4E JUMP JUMPDEST PUSH2 0x5C9 JUMP JUMPDEST PUSH2 0x260 PUSH2 0x254 CALLDATASIZE PUSH1 0x4 PUSH2 0xBEB JUMP JUMPDEST SWAP3 LT DUP2 DUP4 EQ AND SWAP2 GT OR SWAP1 JUMP JUMPDEST PUSH1 0x40 MLOAD SWAP1 ISZERO ISZERO DUP2 MSTORE PUSH1 0x20 ADD PUSH2 0x17D JUMP JUMPDEST PUSH2 0x283 PUSH2 0x27E CALLDATASIZE PUSH1 0x4 PUSH2 0xBEB JUMP JUMPDEST PUSH2 0x5F2 JUMP JUMPDEST PUSH1 0x40 DUP1 MLOAD SWAP5 DUP6 MSTORE PUSH1 0x20 DUP6 ADD SWAP4 SWAP1 SWAP4 MSTORE SWAP2 DUP4 ADD MSTORE PUSH1 0x60 DUP3 ADD MSTORE PUSH1 0x80 ADD PUSH2 0x17D JUMP JUMPDEST PUSH2 0x1A1 PUSH2 0x2B1 CALLDATASIZE PUSH1 0x4 PUSH2 0xD84 JUMP JUMPDEST PUSH2 0x81A JUMP JUMPDEST PUSH2 0x260 PUSH2 0x2C4 CALLDATASIZE PUSH1 0x4 PUSH2 0xE10 JUMP JUMPDEST ISZERO SWAP1 ISZERO AND SWAP1 JUMP JUMPDEST PUSH2 0x1A1 PUSH2 0x2D9 CALLDATASIZE PUSH1 0x4 PUSH2 0xE10 JUMP JUMPDEST PUSH2 0x8B4 JUMP JUMPDEST PUSH2 0x1A1 PUSH2 0x2EC CALLDATASIZE PUSH1 0x4 PUSH2 0xBEB JUMP JUMPDEST DUP2 DUP5 SUB SWAP5 SWAP2 SWAP1 SWAP4 LT SWAP3 SWAP1 SWAP2 SUB SWAP2 SWAP1 SWAP2 SUB SWAP1 JUMP JUMPDEST PUSH2 0x312 PUSH2 0x30D CALLDATASIZE PUSH1 0x4 PUSH2 0xC91 JUMP JUMPDEST PUSH2 0x8D3 JUMP JUMPDEST PUSH1 0x40 DUP1 MLOAD SWAP4 DUP5 MSTORE PUSH1 0x20 DUP5 ADD SWAP3 SWAP1 SWAP3 MSTORE SWAP1 DUP3 ADD MSTORE PUSH1 0x60 ADD PUSH2 0x17D JUMP JUMPDEST PUSH2 0x1A1 PUSH2 0x33B CALLDATASIZE PUSH1 0x4 PUSH2 0xC91 JUMP JUMPDEST PUSH2 0x8FB JUMP JUMPDEST PUSH2 0x1A1 PUSH2 0x34E CALLDATASIZE PUSH1 0x4 PUSH2 0xBEB JUMP JUMPDEST PUSH2 0x98E JUMP JUMPDEST PUSH2 0x260 PUSH2 0x361 CALLDATASIZE PUSH1 0x4 PUSH2 0xBEB JUMP JUMPDEST SWAP3 GT DUP2 DUP4 EQ AND SWAP2 LT OR SWAP1 JUMP JUMPDEST PUSH2 0x1A1 PUSH2 0x37B CALLDATASIZE PUSH1 0x4 PUSH2 0xC4E JUMP JUMPDEST PUSH2 0xAFC JUMP JUMPDEST PUSH2 0x260 PUSH2 0x38E CALLDATASIZE PUSH1 0x4 PUSH2 0xBEB JUMP JUMPDEST SWAP3 EQ SWAP2 EQ AND SWAP1 JUMP JUMPDEST PUSH2 0x1FF PUSH2 0x3A4 CALLDATASIZE PUSH1 0x4 PUSH2 0xBEB JUMP JUMPDEST PUSH2 0xB2A JUMP JUMPDEST PUSH2 0x1A1 PUSH2 0x3B7 CALLDATASIZE PUSH1 0x4 PUSH2 0xC91 JUMP JUMPDEST SWAP2 DUP3 SHR PUSH2 0x100 DUP4 SWAP1 SUB DUP3 SWAP1 SHL ADD SWAP3 SWAP2 SHR SWAP1 JUMP JUMPDEST STOP JUMPDEST PUSH2 0x3DF PUSH2 0x3DA CALLDATASIZE PUSH1 0x4 PUSH2 0xE10 JUMP JUMPDEST PUSH2 0xBA4 JUMP JUMPDEST PUSH1 0x40 MLOAD PUSH2 0x17D SWAP2 SWAP1 PUSH2 0xE32 JUMP JUMPDEST PUSH2 0x3F4 PUSH2 0xBCD JUMP JUMPDEST PUSH1 0x0 DUP1 DUP1 DUP1 PUSH2 0x403 DUP10 DUP9 PUSH2 0x8B4 JUMP JUMPDEST PUSH1 0x20 DUP8 ADD MSTORE DUP6 MSTORE PUSH2 0x414 DUP9 DUP9 PUSH2 0x8B4 JUMP JUMPDEST PUSH1 0x40 DUP8 ADD MSTORE PUSH1 0x20 DUP7 ADD DUP1 MLOAD DUP1 DUP4 ADD SWAP2 DUP3 SWAP1 MSTORE SWAP2 SWAP6 POP SWAP1 SWAP3 POP DUP3 GT ISZERO PUSH2 0x441 JUMPI DUP1 PUSH2 0x43D DUP2 PUSH2 0xEAC JUMP JUMPDEST SWAP2 POP POP JUMPDEST PUSH2 0x44B DUP10 DUP8 PUSH2 0x8B4 JUMP JUMPDEST PUSH1 0x20 DUP8 ADD DUP1 MLOAD DUP1 DUP5 ADD SWAP2 DUP3 SWAP1 MSTORE SWAP3 SWAP7 POP SWAP1 SWAP5 POP SWAP1 SWAP3 POP DUP3 GT ISZERO PUSH2 0x476 JUMPI DUP1 PUSH2 0x472 DUP2 PUSH2 0xEAC JUMP JUMPDEST SWAP2 POP POP JUMPDEST PUSH1 0x40 DUP6 ADD DUP1 MLOAD DUP3 DUP2 ADD SWAP2 DUP3 SWAP1 MSTORE SWAP3 POP DUP2 GT ISZERO PUSH2 0x494 JUMPI POP PUSH1 0x1 PUSH2 0x498 JUMP JUMPDEST POP PUSH1 0x0 JUMPDEST PUSH1 0x40 DUP6 ADD DUP1 MLOAD DUP5 DUP2 ADD SWAP2 DUP3 SWAP1 MSTORE SWAP3 POP DUP3 GT ISZERO PUSH2 0x4BC JUMPI DUP1 PUSH2 0x4B8 DUP2 PUSH2 0xEAC JUMP JUMPDEST SWAP2 POP POP JUMPDEST PUSH2 0x4C6 DUP9 DUP8 PUSH2 0x8B4 JUMP JUMPDEST PUSH1 0x60 DUP8 ADD MSTORE PUSH1 0x40 DUP7 ADD DUP1 MLOAD DUP1 DUP4 ADD SWAP2 DUP3 SWAP1 MSTORE SWAP2 SWAP6 POP SWAP1 SWAP3 POP DUP3 GT ISZERO PUSH2 0x4F3 JUMPI DUP1 PUSH2 0x4EF DUP2 PUSH2 0xEAC JUMP JUMPDEST SWAP2 POP POP JUMPDEST PUSH1 0x60 DUP6 ADD DUP1 MLOAD SWAP1 SWAP2 ADD SWAP1 MSTORE POP SWAP2 SWAP7 SWAP6 POP POP POP POP POP POP JUMP JUMPDEST DUP4 DUP7 ADD DUP7 DUP2 LT DUP5 DUP8 ADD DUP2 ADD SWAP1 DUP2 DUP9 EQ AND DUP8 DUP3 LT OR ISZERO PUSH2 0x53D JUMPI POP POP DUP4 DUP3 SUB DUP1 DUP8 SUB SWAP1 DUP8 LT DUP6 DUP5 LT DUP6 DUP5 SUB SUB DUP8 SUB SUB PUSH2 0x55D JUMP JUMPDEST DUP4 DUP3 LT DUP4 DUP3 EQ AND DUP4 DUP3 LT OR PUSH2 0x55D JUMPI DUP4 DUP3 SUB DUP5 DUP4 LT DUP5 DUP4 SUB SUB JUMPDEST SWAP1 SWAP3 POP SWAP1 POP JUMPDEST SWAP7 POP SWAP7 SWAP5 POP POP POP POP POP JUMP JUMPDEST PUSH1 0x0 DUP2 PUSH1 0x0 NOT DUP5 MULMOD SWAP1 POP DUP2 DUP4 DUP3 ADDMOD SWAP1 POP DUP2 DUP5 DUP3 ADDMOD SWAP5 SWAP4 POP POP POP POP JUMP JUMPDEST PUSH1 0x0 DUP1 DUP3 DUP1 PUSH1 0x20 ADD SWAP1 MLOAD DUP2 ADD SWAP1 PUSH2 0x59B SWAP2 SWAP1 PUSH2 0xEC5 JUMP JUMPDEST SWAP5 SWAP1 SWAP4 POP SWAP2 POP POP JUMP JUMPDEST PUSH1 0x0 DUP1 PUSH1 0x0 NOT DUP4 DUP7 MULMOD SWAP5 DUP4 MUL SWAP6 SWAP4 SWAP1 SWAP3 MUL DUP6 DUP6 LT SWAP5 DUP7 SWAP1 SUB SWAP5 SWAP1 SWAP5 SUB SWAP4 SWAP1 SWAP4 ADD SWAP3 POP POP JUMP JUMPDEST DUP4 DUP7 SUB DUP5 DUP8 LT DUP5 DUP8 SUB SUB DUP7 DUP2 GT DUP2 DUP9 EQ DUP10 DUP5 GT AND OR ISZERO PUSH2 0x55D JUMPI DUP2 DUP5 SUB DUP3 DUP6 LT DUP3 DUP6 SUB SUB PUSH2 0x557 JUMP JUMPDEST PUSH1 0x0 DUP1 DUP1 DUP1 DUP5 ISZERO DUP7 ISZERO AND ISZERO PUSH2 0x606 JUMPI PUSH1 0x0 DUP1 REVERT JUMPDEST DUP7 ISZERO DUP9 ISZERO AND ISZERO PUSH2 0x621 JUMPI POP PUSH1 0x0 SWAP3 POP DUP3 SWAP2 POP DUP7 SWAP1 POP DUP6 PUSH2 0x80F JUMP JUMPDEST DUP5 DUP8 EQ DUP7 DUP10 EQ AND ISZERO PUSH2 0x63F JUMPI POP PUSH1 0x1 SWAP3 POP PUSH1 0x0 SWAP2 POP DUP2 SWAP1 POP DUP1 PUSH2 0x80F JUMP JUMPDEST DUP8 DUP7 GT DUP8 DUP7 EQ AND DUP8 DUP7 GT OR ISZERO PUSH2 0x660 JUMPI POP PUSH1 0x0 SWAP3 POP DUP3 SWAP2 POP DUP7 SWAP1 POP DUP6 PUSH2 0x80F JUMP JUMPDEST DUP5 PUSH1 0x0 SUB PUSH2 0x684 JUMPI PUSH2 0x673 DUP9 DUP9 DUP9 PUSH2 0x8FB JUMP JUMPDEST SWAP1 SWAP5 POP PUSH1 0x0 SWAP4 POP SWAP2 POP DUP3 SWAP1 POP PUSH2 0x80F JUMP JUMPDEST POP POP PUSH1 0x40 DUP1 MLOAD DUP1 DUP3 ADD SWAP1 SWAP2 MSTORE DUP5 DUP2 MSTORE PUSH1 0x20 DUP2 ADD DUP5 SWAP1 MSTORE DUP7 SWAP1 DUP7 SWAP1 PUSH1 0x1 PUSH1 0xFF SHL SWAP1 JUMPDEST PUSH2 0x6C7 DUP11 DUP11 DUP4 PUSH1 0x0 JUMPDEST PUSH1 0x20 MUL ADD MLOAD DUP5 PUSH1 0x1 PUSH1 0x20 MUL ADD MLOAD SWAP3 GT DUP2 DUP4 EQ AND SWAP2 LT OR SWAP1 JUMP JUMPDEST DUP1 ISZERO PUSH2 0x6F6 JUMPI POP DUP2 DUP1 DUP3 PUSH2 0x6DD PUSH1 0x1 PUSH1 0x2 PUSH2 0xEE9 JUMP JUMPDEST PUSH1 0x2 DUP2 LT PUSH2 0x6ED JUMPI PUSH2 0x6ED PUSH2 0xE80 JUMP JUMPDEST PUSH1 0x20 MUL ADD MLOAD AND EQ ISZERO JUMPDEST ISZERO PUSH2 0x72E JUMPI PUSH2 0x722 DUP2 PUSH1 0x0 JUMPDEST PUSH1 0x20 MUL ADD MLOAD DUP3 PUSH1 0x1 PUSH1 0x20 MUL ADD MLOAD PUSH1 0x1 DUP3 DUP2 SHL SWAP4 PUSH1 0xFF SWAP4 SWAP1 SWAP4 SHR SWAP2 SWAP1 SHL ADD SWAP1 JUMP JUMPDEST PUSH1 0x20 DUP4 ADD MSTORE DUP2 MSTORE PUSH2 0x6A5 JUMP JUMPDEST DUP1 MLOAD PUSH1 0x20 DUP3 ADD MLOAD SWAP1 DUP12 LT DUP11 DUP3 EQ AND SWAP1 DUP11 LT OR ISZERO PUSH2 0x772 JUMPI PUSH2 0x76A DUP2 PUSH1 0x0 JUMPDEST PUSH1 0x20 MUL ADD MLOAD DUP3 PUSH1 0x1 PUSH1 0x20 MUL ADD MLOAD PUSH1 0xFF DUP2 SWAP1 SHL PUSH1 0x1 SWAP3 DUP4 SHR ADD SWAP3 SWAP2 SHR SWAP1 JUMP JUMPDEST PUSH1 0x20 DUP4 ADD MSTORE DUP2 MSTORE JUMPDEST PUSH1 0x0 SWAP6 POP DUP6 SWAP5 POP JUMPDEST DUP8 DUP5 LT DUP8 DUP5 EQ AND DUP8 DUP5 LT OR PUSH2 0x80C JUMPI PUSH1 0x1 DUP7 DUP2 SHL SWAP7 PUSH1 0xFF SHR SWAP6 SWAP1 SHL SWAP5 SWAP1 SWAP5 ADD SWAP4 PUSH2 0x7BC DUP5 DUP5 DUP4 PUSH1 0x0 JUMPDEST PUSH1 0x20 MUL ADD MLOAD DUP5 PUSH1 0x1 PUSH1 0x20 MUL ADD MLOAD SWAP3 LT DUP2 DUP4 EQ AND SWAP2 GT OR SWAP1 JUMP JUMPDEST PUSH2 0x7F5 JUMPI PUSH2 0x7E9 DUP5 DUP5 DUP4 PUSH1 0x0 JUMPDEST PUSH1 0x20 MUL ADD MLOAD DUP5 PUSH1 0x1 PUSH1 0x20 MUL ADD MLOAD DUP2 DUP5 SUB SWAP5 SWAP2 SWAP1 SWAP4 LT SWAP3 SWAP1 SWAP2 SUB SWAP2 SWAP1 SWAP2 SUB SWAP1 JUMP JUMPDEST PUSH1 0x1 SWAP1 SWAP8 OR SWAP7 SWAP1 SWAP5 POP SWAP3 POP JUMPDEST PUSH2 0x800 DUP2 PUSH1 0x0 PUSH2 0x74C JUMP JUMPDEST PUSH1 0x20 DUP4 ADD MSTORE DUP2 MSTORE PUSH2 0x77A JUMP JUMPDEST POP POP JUMPDEST SWAP5 POP SWAP5 POP SWAP5 POP SWAP5 SWAP1 POP JUMP JUMPDEST PUSH1 0x0 DUP1 PUSH2 0x82B PUSH1 0x0 NOT DUP1 DUP7 DUP7 PUSH2 0x98E JUMP JUMPDEST PUSH1 0x40 DUP8 ADD MLOAD PUSH1 0x1 DUP4 ADD SWAP5 POP SWAP2 DUP5 LT ADD SWAP2 POP PUSH1 0x0 SWAP1 DUP2 SWAP1 PUSH2 0x855 SWAP1 DUP9 PUSH1 0x3 JUMPDEST PUSH1 0x20 MUL ADD MLOAD DUP9 DUP9 PUSH2 0x98E JUMP JUMPDEST SWAP2 POP SWAP2 POP PUSH2 0x864 DUP5 DUP5 DUP5 PUSH2 0x5A4 JUMP JUMPDEST SWAP1 SWAP3 POP SWAP1 POP DUP4 DUP3 ADD DUP5 DUP2 LT DUP5 DUP4 ADD ADD DUP9 MLOAD SWAP2 SWAP6 POP SWAP4 POP PUSH2 0x886 SWAP1 DUP9 PUSH1 0x1 PUSH2 0x849 JUMP JUMPDEST SWAP1 SWAP3 POP SWAP1 POP DUP4 DUP3 ADD DUP5 DUP2 LT DUP5 DUP4 ADD ADD SWAP1 SWAP5 POP SWAP3 POP PUSH2 0x8A6 DUP5 DUP5 DUP9 DUP9 PUSH2 0x98E JUMP JUMPDEST SWAP1 SWAP9 SWAP1 SWAP8 POP SWAP6 POP POP POP POP POP POP JUMP JUMPDEST PUSH1 0x0 DUP1 PUSH1 0x0 NOT DUP4 DUP6 MULMOD DUP4 DUP6 MUL SWAP3 POP DUP3 DUP2 LT DUP4 DUP3 SUB SUB SWAP2 POP POP SWAP3 POP SWAP3 SWAP1 POP JUMP JUMPDEST PUSH1 0x0 DUP1 DUP1 PUSH1 0x0 NOT DUP6 DUP8 MULMOD DUP6 DUP8 MUL SWAP4 POP DUP4 DUP2 LT DUP5 DUP3 SUB SUB SWAP3 POP POP DUP4 DUP6 DUP8 MULMOD SWAP1 POP SWAP4 POP SWAP4 POP SWAP4 SWAP1 POP JUMP JUMPDEST PUSH1 0x0 DUP1 DUP3 PUSH1 0x0 NOT DUP6 MULMOD SWAP1 POP DUP3 DUP5 DUP3 ADDMOD SWAP1 POP DUP3 DUP6 DUP3 ADDMOD PUSH1 0x0 DUP5 DUP2 SUB DUP6 AND DUP1 DUP3 SUB DUP2 SWAP1 DIV PUSH1 0x1 ADD DUP4 DUP10 LT SWAP1 SWAP8 SUB SWAP7 DUP8 MUL SWAP8 DUP4 SWAP1 SUB DUP2 SWAP1 DIV SWAP8 SWAP1 SWAP8 OR SWAP7 SWAP1 SWAP5 DIV SWAP4 SWAP1 SWAP2 POP DUP5 SWAP1 SUB PUSH2 0x954 JUMPI PUSH2 0x94D DUP4 DUP7 PUSH2 0xEFC JUMP JUMPDEST SWAP2 POP PUSH2 0x986 JUMP JUMPDEST PUSH1 0x2 PUSH1 0x3 DUP5 MUL DUP2 XOR DUP1 DUP6 MUL DUP3 SUB MUL DUP1 DUP6 MUL DUP3 SUB MUL DUP1 DUP6 MUL DUP3 SUB MUL DUP1 DUP6 MUL DUP3 SUB MUL DUP1 DUP6 MUL DUP3 SUB MUL DUP1 DUP6 MUL SWAP1 SWAP2 SUB MUL DUP6 MUL SWAP2 POP JUMPDEST SWAP4 POP SWAP4 SWAP2 POP POP JUMP JUMPDEST PUSH1 0x0 DUP1 DUP3 ISZERO DUP5 ISZERO AND ISZERO PUSH2 0x9A0 JUMPI PUSH1 0x0 DUP1 REVERT JUMPDEST DUP5 ISZERO DUP7 ISZERO AND ISZERO PUSH2 0x9B4 JUMPI POP DUP5 SWAP1 POP DUP4 PUSH2 0xAF3 JUMP JUMPDEST DUP3 DUP6 EQ DUP5 DUP8 EQ AND ISZERO PUSH2 0x9CB JUMPI POP PUSH1 0x0 SWAP1 POP DUP1 PUSH2 0xAF3 JUMP JUMPDEST DUP6 DUP5 GT DUP6 DUP5 EQ AND DUP6 DUP5 GT OR ISZERO PUSH2 0x9E5 JUMPI POP DUP5 SWAP1 POP DUP4 PUSH2 0xAF3 JUMP JUMPDEST DUP3 PUSH1 0x0 SUB PUSH2 0xA03 JUMPI PUSH2 0x9F8 DUP7 DUP7 DUP7 PUSH2 0x568 JUMP JUMPDEST PUSH1 0x0 SWAP2 POP SWAP2 POP PUSH2 0xAF3 JUMP JUMPDEST POP POP PUSH1 0x40 DUP1 MLOAD DUP1 DUP3 ADD SWAP1 SWAP2 MSTORE DUP3 DUP2 MSTORE PUSH1 0x20 DUP2 ADD DUP3 SWAP1 MSTORE DUP5 SWAP1 DUP5 SWAP1 PUSH1 0x1 PUSH1 0xFF SHL SWAP1 JUMPDEST PUSH2 0xA31 DUP9 DUP9 DUP4 PUSH1 0x0 PUSH2 0x6AE JUMP JUMPDEST DUP1 ISZERO PUSH2 0xA60 JUMPI POP DUP2 DUP1 DUP3 PUSH2 0xA47 PUSH1 0x1 PUSH1 0x2 PUSH2 0xEE9 JUMP JUMPDEST PUSH1 0x2 DUP2 LT PUSH2 0xA57 JUMPI PUSH2 0xA57 PUSH2 0xE80 JUMP JUMPDEST PUSH1 0x20 MUL ADD MLOAD AND EQ ISZERO JUMPDEST ISZERO PUSH2 0xA7C JUMPI PUSH2 0xA70 DUP2 PUSH1 0x0 PUSH2 0x702 JUMP JUMPDEST PUSH1 0x20 DUP4 ADD MSTORE DUP2 MSTORE PUSH2 0xA24 JUMP JUMPDEST DUP1 MLOAD PUSH1 0x20 DUP3 ADD MLOAD SWAP1 DUP10 LT DUP9 DUP3 EQ AND SWAP1 DUP9 LT OR ISZERO PUSH2 0xAA6 JUMPI PUSH2 0xA9E DUP2 PUSH1 0x0 PUSH2 0x74C JUMP JUMPDEST PUSH1 0x20 DUP4 ADD MSTORE DUP2 MSTORE JUMPDEST DUP6 DUP5 LT DUP6 DUP5 EQ AND DUP6 DUP5 LT OR PUSH2 0xAF0 JUMPI PUSH2 0xAC2 DUP5 DUP5 DUP4 PUSH1 0x0 PUSH2 0x7A3 JUMP JUMPDEST PUSH2 0xAD9 JUMPI PUSH2 0xAD3 DUP5 DUP5 DUP4 PUSH1 0x0 PUSH2 0x7C9 JUMP JUMPDEST SWAP1 SWAP5 POP SWAP3 POP JUMPDEST PUSH2 0xAE4 DUP2 PUSH1 0x0 PUSH2 0x74C JUMP JUMPDEST PUSH1 0x20 DUP4 ADD MSTORE DUP2 MSTORE PUSH2 0xAA6 JUMP JUMPDEST POP POP JUMPDEST SWAP5 POP SWAP5 SWAP3 POP POP POP JUMP JUMPDEST PUSH1 0x0 DUP1 PUSH1 0x0 PUSH2 0xB0D DUP10 DUP10 DUP10 DUP10 PUSH2 0x3EC JUMP JUMPDEST SWAP1 POP PUSH2 0xB1A DUP2 DUP7 DUP7 PUSH2 0x81A JUMP JUMPDEST SWAP3 POP SWAP3 POP POP SWAP7 POP SWAP7 SWAP5 POP POP POP POP POP JUMP JUMPDEST PUSH1 0x0 DUP3 DUP2 SUB DUP4 AND DUP1 DUP3 SUB DUP2 SWAP1 DIV PUSH1 0x1 ADD DUP4 DUP8 LT SWAP1 SWAP6 SUB SWAP5 DUP6 MUL SWAP6 DUP4 SWAP1 SUB DUP2 SWAP1 DIV SWAP6 SWAP1 SWAP6 OR SWAP5 SWAP1 SWAP3 DIV SWAP2 DUP4 DUP2 SUB PUSH2 0xB6B JUMPI PUSH2 0xB64 DUP4 DUP7 PUSH2 0xEFC JUMP JUMPDEST SWAP1 POP PUSH2 0xB9C JUMP JUMPDEST POP PUSH1 0x2 PUSH1 0x3 DUP4 MUL DUP2 XOR DUP1 DUP5 MUL DUP3 SUB MUL DUP1 DUP5 MUL DUP3 SUB MUL DUP1 DUP5 MUL DUP3 SUB MUL DUP1 DUP5 MUL DUP3 SUB MUL DUP1 DUP5 MUL DUP3 SUB MUL DUP1 DUP5 MUL SWAP1 SWAP2 SUB MUL DUP5 MUL JUMPDEST SWAP5 SWAP4 POP POP POP POP JUMP JUMPDEST PUSH1 0x40 DUP1 MLOAD PUSH1 0x20 DUP2 ADD DUP4 SWAP1 MSTORE DUP1 DUP3 ADD DUP5 SWAP1 MSTORE DUP2 MLOAD DUP1 DUP3 SUB DUP4 ADD DUP2 MSTORE PUSH1 0x60 SWAP1 SWAP2 ADD SWAP1 SWAP2 MSTORE JUMPDEST SWAP3 SWAP2 POP POP JUMP JUMPDEST PUSH1 0x40 MLOAD DUP1 PUSH1 0x80 ADD PUSH1 0x40 MSTORE DUP1 PUSH1 0x4 SWAP1 PUSH1 0x20 DUP3 MUL DUP1 CALLDATASIZE DUP4 CALLDATACOPY POP SWAP2 SWAP3 SWAP2 POP POP JUMP JUMPDEST PUSH1 0x0 DUP1 PUSH1 0x0 DUP1 PUSH1 0x80 DUP6 DUP8 SUB SLT ISZERO PUSH2 0xC01 JUMPI PUSH1 0x0 DUP1 REVERT JUMPDEST POP POP DUP3 CALLDATALOAD SWAP5 PUSH1 0x20 DUP5 ADD CALLDATALOAD SWAP5 POP PUSH1 0x40 DUP5 ADD CALLDATALOAD SWAP4 PUSH1 0x60 ADD CALLDATALOAD SWAP3 POP SWAP1 POP JUMP JUMPDEST PUSH1 0x80 DUP2 ADD DUP2 DUP4 PUSH1 0x0 JUMPDEST PUSH1 0x4 DUP2 LT ISZERO PUSH2 0xC45 JUMPI DUP2 MLOAD DUP4 MSTORE PUSH1 0x20 SWAP3 DUP4 ADD SWAP3 SWAP1 SWAP2 ADD SWAP1 PUSH1 0x1 ADD PUSH2 0xC26 JUMP JUMPDEST POP POP POP SWAP3 SWAP2 POP POP JUMP JUMPDEST PUSH1 0x0 DUP1 PUSH1 0x0 DUP1 PUSH1 0x0 DUP1 PUSH1 0xC0 DUP8 DUP10 SUB SLT ISZERO PUSH2 0xC67 JUMPI PUSH1 0x0 DUP1 REVERT JUMPDEST POP POP DUP5 CALLDATALOAD SWAP7 PUSH1 0x20 DUP7 ADD CALLDATALOAD SWAP7 POP PUSH1 0x40 DUP7 ADD CALLDATALOAD SWAP6 PUSH1 0x60 DUP2 ADD CALLDATALOAD SWAP6 POP PUSH1 0x80 DUP2 ADD CALLDATALOAD SWAP5 POP PUSH1 0xA0 ADD CALLDATALOAD SWAP3 POP SWAP1 POP JUMP JUMPDEST PUSH1 0x0 DUP1 PUSH1 0x0 PUSH1 0x60 DUP5 DUP7 SUB SLT ISZERO PUSH2 0xCA6 JUMPI PUSH1 0x0 DUP1 REVERT JUMPDEST POP POP DUP2 CALLDATALOAD SWAP4 PUSH1 0x20 DUP4 ADD CALLDATALOAD SWAP4 POP PUSH1 0x40 SWAP1 SWAP3 ADD CALLDATALOAD SWAP2 SWAP1 POP JUMP JUMPDEST PUSH4 0x4E487B71 PUSH1 0xE0 SHL PUSH1 0x0 MSTORE PUSH1 0x41 PUSH1 0x4 MSTORE PUSH1 0x24 PUSH1 0x0 REVERT JUMPDEST PUSH1 0x0 PUSH1 0x20 DUP3 DUP5 SUB SLT ISZERO PUSH2 0xCE5 JUMPI PUSH1 0x0 DUP1 REVERT JUMPDEST DUP2 CALLDATALOAD PUSH8 0xFFFFFFFFFFFFFFFF DUP1 DUP3 GT ISZERO PUSH2 0xCFD JUMPI PUSH1 0x0 DUP1 REVERT JUMPDEST DUP2 DUP5 ADD SWAP2 POP DUP5 PUSH1 0x1F DUP4 ADD SLT PUSH2 0xD11 JUMPI PUSH1 0x0 DUP1 REVERT JUMPDEST DUP2 CALLDATALOAD DUP2 DUP2 GT ISZERO PUSH2 0xD23 JUMPI PUSH2 0xD23 PUSH2 0xCBD JUMP JUMPDEST PUSH1 0x40 MLOAD PUSH1 0x1F DUP3 ADD PUSH1 0x1F NOT SWAP1 DUP2 AND PUSH1 0x3F ADD AND DUP2 ADD SWAP1 DUP4 DUP3 GT DUP2 DUP4 LT OR ISZERO PUSH2 0xD4B JUMPI PUSH2 0xD4B PUSH2 0xCBD JUMP JUMPDEST DUP2 PUSH1 0x40 MSTORE DUP3 DUP2 MSTORE DUP8 PUSH1 0x20 DUP5 DUP8 ADD ADD GT ISZERO PUSH2 0xD64 JUMPI PUSH1 0x0 DUP1 REVERT JUMPDEST DUP3 PUSH1 0x20 DUP7 ADD PUSH1 0x20 DUP4 ADD CALLDATACOPY PUSH1 0x0 SWAP3 DUP2 ADD PUSH1 0x20 ADD SWAP3 SWAP1 SWAP3 MSTORE POP SWAP6 SWAP5 POP POP POP POP POP JUMP JUMPDEST PUSH1 0x0 DUP1 PUSH1 0x0 PUSH1 0xC0 DUP5 DUP7 SUB SLT ISZERO PUSH2 0xD99 JUMPI PUSH1 0x0 DUP1 REVERT JUMPDEST DUP5 PUSH1 0x1F DUP6 ADD SLT PUSH2 0xDA8 JUMPI PUSH1 0x0 DUP1 REVERT JUMPDEST PUSH1 0x40 MLOAD PUSH1 0x80 DUP2 ADD DUP2 DUP2 LT PUSH8 0xFFFFFFFFFFFFFFFF DUP3 GT OR ISZERO PUSH2 0xDCB JUMPI PUSH2 0xDCB PUSH2 0xCBD JUMP JUMPDEST PUSH1 0x40 MSTORE DUP1 PUSH1 0x80 DUP7 ADD DUP8 DUP2 GT ISZERO PUSH2 0xDE0 JUMPI PUSH1 0x0 DUP1 REVERT JUMPDEST DUP7 JUMPDEST DUP2 DUP2 LT ISZERO PUSH2 0xDFA JUMPI DUP1 CALLDATALOAD DUP4 MSTORE PUSH1 0x20 SWAP3 DUP4 ADD SWAP3 ADD PUSH2 0xDE2 JUMP JUMPDEST POP SWAP2 SWAP8 SWAP2 CALLDATALOAD SWAP7 POP POP PUSH1 0xA0 SWAP5 SWAP1 SWAP5 ADD CALLDATALOAD SWAP4 SWAP3 POP POP POP JUMP JUMPDEST PUSH1 0x0 DUP1 PUSH1 0x40 DUP4 DUP6 SUB SLT ISZERO PUSH2 0xE23 JUMPI PUSH1 0x0 DUP1 REVERT JUMPDEST POP POP DUP1 CALLDATALOAD SWAP3 PUSH1 0x20 SWAP1 SWAP2 ADD CALLDATALOAD SWAP2 POP JUMP JUMPDEST PUSH1 0x0 PUSH1 0x20 DUP1 DUP4 MSTORE DUP4 MLOAD DUP1 DUP3 DUP6 ADD MSTORE PUSH1 0x0 JUMPDEST DUP2 DUP2 LT ISZERO PUSH2 0xE5F JUMPI DUP6 DUP2 ADD DUP4 ADD MLOAD DUP6 DUP3 ADD PUSH1 0x40 ADD MSTORE DUP3 ADD PUSH2 0xE43 JUMP JUMPDEST POP PUSH1 0x0 PUSH1 0x40 DUP3 DUP7 ADD ADD MSTORE PUSH1 0x40 PUSH1 0x1F NOT PUSH1 0x1F DUP4 ADD AND DUP6 ADD ADD SWAP3 POP POP POP SWAP3 SWAP2 POP POP JUMP JUMPDEST PUSH4 0x4E487B71 PUSH1 0xE0 SHL PUSH1 0x0 MSTORE PUSH1 0x32 PUSH1 0x4 MSTORE PUSH1 0x24 PUSH1 0x0 REVERT JUMPDEST PUSH4 0x4E487B71 PUSH1 0xE0 SHL PUSH1 0x0 MSTORE PUSH1 0x11 PUSH1 0x4 MSTORE PUSH1 0x24 PUSH1 0x0 REVERT JUMPDEST PUSH1 0x0 PUSH1 0x1 DUP3 ADD PUSH2 0xEBE JUMPI PUSH2 0xEBE PUSH2 0xE96 JUMP JUMPDEST POP PUSH1 0x1 ADD SWAP1 JUMP JUMPDEST PUSH1 0x0 DUP1 PUSH1 0x40 DUP4 DUP6 SUB SLT ISZERO PUSH2 0xED8 JUMPI PUSH1 0x0 DUP1 REVERT JUMPDEST POP POP DUP1 MLOAD PUSH1 0x20 SWAP1 SWAP2 ADD MLOAD SWAP1 SWAP3 SWAP1 SWAP2 POP JUMP JUMPDEST DUP2 DUP2 SUB DUP2 DUP2 GT ISZERO PUSH2 0xBC7 JUMPI PUSH2 0xBC7 PUSH2 0xE96 JUMP JUMPDEST PUSH1 0x0 DUP3 PUSH2 0xF19 JUMPI PUSH4 0x4E487B71 PUSH1 0xE0 SHL PUSH1 0x0 MSTORE PUSH1 0x12 PUSH1 0x4 MSTORE PUSH1 0x24 PUSH1 0x0 REVERT JUMPDEST POP DIV SWAP1 JUMP INVALID LOG2 PUSH5 0x6970667358 0x22 SLT KECCAK256 0x2E SWAP2 0xE0 PUSH11 0xF6DB17D1CA36A1220101E8 SWAP5 SWAP6 SWAP15 PUSH32 0x190F431F8057186EBD3428247264736F6C634300081100330000000000000000 ",
  "sha1": "22f18f5e6436a5f4fa112cc3ce09d9331f70b65d",
  "source": "// SPDX-License-Identifier: MIT\npragma solidity ^0.8.0;\n\n// import {console} from \"forge-std/console.sol\";\n\n\n\ncontract Uint512 {\n\n\tuint256 constant MAX_INT = 0xffffffffffffffffffffffffffffffffffffffffffffffffffffffffffffffff;\n\tuint256 constant internal ONE = uint(1);\n\n\n\tfunction empty() \n\tpublic pure {}\n\n\n\n    // returns 1 if a < b, 0 otherwise\n    function lt512x512(uint256 a0, uint256 a1, uint256 b0, uint256 b1) \n\tpublic pure  returns (bool r) {\n        assembly {\n            r := or(lt(a1, b1), and(eq(a1, b1), lt(a0, b0)))\n        }\n    }\n\n    // returns 1 if a > b, 0 otherwise\n    function gt512x512(uint256 a0, uint256 a1, uint256 b0, uint256 b1) \n\tpublic pure  returns (bool r) {\n        assembly {\n            r := or(gt(a1, b1), and(eq(a1, b1), gt(a0, b0)))\n        }\n    }\n\n    // returns 1 if a == b, 0 otherwise\n    function eq512x512(uint256 a0, uint256 a1, uint256 b0, uint256 b1) \n\tpublic pure  returns (bool r) {\n        assembly {\n            r := and(eq(a0, b0), eq(a1, b1))\n        }\n    }\n\n\t// returns 1 if a == 0, 0 otherwise\n    function isZero512(uint256 a0, uint256 a1) \n\tpublic pure  returns (bool r) {\n        assembly {\n            r := and(eq(a0, 0), eq(a1, 0))\n        }\n    }\n\n    // expect a and b be already properly reduced by modulus n\n\t// if a + b > n, then r = a + b - n\n\t// if a + b overflow 512 bit, then calc a+b-n = a-(n-b) \n    function add512x512mod(uint256 a0, uint256 a1, uint256 b0, uint256 b1, uint256 n0, uint256 n1) \n    public pure  returns (uint256 r0, uint256 r1) {\n        (r0, r1) = add512x512(a0, a1, b0, b1);\n\t\tif (lt512x512(r0, r1, a0, a1)) {\n\t\t\t(uint256 t0, uint256 t1) = sub512x512(n0, n1, b0, b1);\n\t\t\t(r0, r1) = sub512x512(a0, a1, t0, t1);\n\t\t}\n        else if (!lt512x512(r0, r1, n0, n1)) {\n            (r0, r1) = sub512x512(r0, r1, n0, n1);\n        }\n    }\n\n\t// expect a and b be already properly reduced by modulus n\n\t// if a - b < 0 -> r = n - (a - b)\n    function sub512x512mod(uint256 a0, uint256 a1, uint256 b0, uint256 b1, uint256 n0, uint256 n1) \n    public pure  returns (uint256 r0, uint256 r1) {\n        (r0, r1) = sub512x512(a0, a1, b0, b1);\n\t\tif (gt512x512(r0, r1, a0, a1)) {\n\t\t\t(r0, r1) = sub512x512(n0, n1, r0, r1);\n\t\t}\n    }\n\n\n\t// a(512-bit) mod n(256-bit)\n\tfunction mod256(uint256 x0, uint256 x1, uint256 n) \n\tpublic pure  returns (uint256 rem) {\n\t\tassembly {\n\t\t\trem := mulmod(x1, not(0), n)\n\t\t\trem := addmod(rem, x1, n)\n\t\t\trem := addmod(rem, x0, n)\n\t\t}\n\t}\n\n\n\n\n\n// ------------------------------------------------------------------------------------------------\n\n\n    function mod512(uint256 x0, uint256 x1, uint256 n0, uint256 n1) \n\tpublic pure returns(uint256 rem0, uint256 rem1) {\n        // Check special cases\n        if (isZero512(n0, n1))  // Modulus is zero\n            revert();\n        if (isZero512(x0, x1))  // Dividend is zero\n            return (x0, x1);\n        if (eq512x512(x0, x1, n0, n1))       // If dividend equal modulus\n            return (0, 0);\n        if (gt512x512(n0, n1, x0, x1))       // If modulus greater than dividend\n            return (x0, x1);\n        if (n1 == 0) {  \t\t\t\t\t\t // If modulus < 2**256\n            return (mod256(x0, x1, n0), 0);\n\t\t}\n\n\t\t(rem0, rem1) = (x0, x1);\n\t\tuint256 top = 2**255;\n\n\t\tuint256[2] memory m = [n0, n1]; // copy of modulus\n        // Align most significant bit\n        while (gt512x512(x0, x1, m[0], m[1]) && m[m.length-1] & top != top) {\n\t\t\t(m[0], m[1]) = lshift512(m[0], m[1], 1);\n\t\t}\n\n        if (gt512x512(m[0], m[1], x0, x1)) {  // If modulus copy is now greater\n            (m[0], m[1]) = rshift512(m[0], m[1], 1);\n\t\t}\n\n        // Subtract repeatedly until result is less than modulus\n        while (!lt512x512(rem0, rem1, n0, n1)) {\n            if (!lt512x512(rem0, rem1, m[0], m[1]))  // Subtract if modulus copy is less than\n                (rem0, rem1) = sub512x512(rem0, rem1, m[0], m[1]);\n            (m[0], m[1]) = rshift512(m[0], m[1], 1); // Bitshift modulus copy\n        }\n    }\n\n\n\n\n\tfunction divmod512(uint256 x0, uint256 x1, uint256 n0, uint256 n1) \n\tpublic pure returns(uint256 res0, uint256 res1, uint256 rem0, uint256 rem1) {\n        // Check special cases\n        if (isZero512(n0, n1))  // Modulus is zero\n            revert();\n        if (isZero512(x0, x1))  // Dividend is zero\n            return (0, 0, x0, x1);\n        if (eq512x512(x0, x1, n0, n1))       // If dividend equal modulus\n            return (1, 0, 0, 0);\n        if (gt512x512(n0, n1, x0, x1))       // If modulus greater than dividend\n            return (0, 0, x0, x1);\n        if (n1 == 0) {  \t\t\t\t\t\t // If modulus < 2**256\n\t\t\t(res0, rem0) = div512x256(x0, x1, n0);\n            return (res0, 0, rem0, 0);\n\t\t}\n\n\t\t(rem0, rem1) = (x0, x1);\n\t\tuint256 top = 2**255;\n\n\t\tuint256[2] memory m = [n0, n1]; // copy of modulus\n        // Align most significant bit\n        while (gt512x512(x0, x1, m[0], m[1]) && m[m.length-1] & top != top) {\n\t\t\t(m[0], m[1]) = lshift512(m[0], m[1], 1);\n\t\t}\n\n        if (gt512x512(m[0], m[1], x0, x1)) {  // If modulus copy is now greater\n            (m[0], m[1]) = rshift512(m[0], m[1], 1);\n\t\t}\n\n\t\t(res0, res1) = (0, 0);\n\n        // Subtract repeatedly until result is less than modulus\n        while (!lt512x512(rem0, rem1, n0, n1)) {\n\t\t\t(res0, res1) = lshift512(res0, res1, 1);\n            if (!lt512x512(rem0, rem1, m[0], m[1])) {  // Subtract if modulus copy is less than\n                (rem0, rem1) = sub512x512(rem0, rem1, m[0], m[1]);\n\t\t\t\tres0 = res0 | 0x1;\n\t\t\t}\n            (m[0], m[1]) = rshift512(m[0], m[1], 1); // Bitshift modulus copy\n        }\n    }\n\n\n\t// Computes the index of the highest bit set in 'self'.\n    // Returns the highest bit set as an 'uint8'.\n    // Requires that 'self != 0'.\n    function highestBitSet256(uint self) \n\tinternal pure  returns (uint256 highest) {\n        require(self != 0);\n        uint val = self;\n        for (uint8 i = 128; i >= 1; i >>= 1) {\n            if (val & (ONE << i) - 1 << i != 0) {\n                highest += i;\n                val >>= i;\n            }\n        }\n    }\n\n\n//-------------------------------------------------------\n\n\n\t// СЂРµР°Р»РёР·Р°С†РёСЏ \"РІ Р»РѕР±\"\n\tfunction mul512x512res1024(uint256 a0, uint256 a1, uint256 b0, uint256 b1) \n\tpublic returns(uint256[4] memory res) {\n\t\tuint256 temp0; uint256 temp1;\n\t\tuint256 old; \n\t\tuint256 overflow = 0;\n\t\t(res[0], res[1]) = mul256x256(a0, b0);\n\t\t(temp0, res[2]) = mul256x256(a1, b0);\n\t\told = res[1];\n\t\tunchecked { res[1] += temp0; }\n\t\tif(res[1] < old) overflow++;\n\t\t(temp0, temp1) = mul256x256(a0, b1);\n\t\told = res[1];\n\t\tunchecked { res[1] += temp0;}\n\t\tif(res[1] < old) overflow++;\n\t\told = res[2];\n\t\tunchecked { res[2] += overflow; }\n\t\tif(res[2] < overflow) overflow = 1;\n\t\telse overflow = 0;\n\t\told = res[2];\n\t\tunchecked { res[2] += temp1; } \n\t\tif(res[2] < old) overflow ++;\n\t\t(temp0, res[3]) = mul256x256(a1, b1);\n\t\told = res[2];\n\t\tunchecked { res[2] += temp0; }\n\t\tif(res[2] < old) overflow ++;\n\t\tunchecked { res[3] += overflow; }\t\t\n\t}\n\n\n\n\t// a (1024) mod n(512) = res(512)\n\tfunction mod512from1024(uint256[4] memory a, uint256 n0, uint256 n1) \n\tpublic returns(uint256 res0, uint256 res1) {\n\t\t(res0, res1) = mod512(MAX_INT, MAX_INT, n0, n1);\n\t\t(res0, res1) = add512x512(res0, res1, 1, 0);\n\t\t(uint256 t0, uint256 t1) = mod512(a[2], a[3], n0, n1);\n\t\t(t0, t1) = mul512x256(res0, res1, t0);\n\t\t(res0, res1) = add512x512(res0, res1, t0, t1);\n\t\t(t0, t1) =  mod512(a[0], a[1], n0, n1);\n\t\t(res0, res1) = add512x512(res0, res1, t0, t1);\n\t\t(res0, res1) = mod512(res0, res1, n0, n1);\n\t}\n\n\n\tfunction mulmod512x512(uint256 a0, uint256 a1, uint256 b0, uint256 b1, uint256 n0, uint256 n1) \n\tpublic returns(uint256 res0, uint256 res1) {\n\t\tuint256[4] memory mul = mul512x512res1024(a0, a1, b0, b1);\n\t\treturn mod512from1024(mul, n0, n1);\t\n\t}\n\n\n\n//-------------------------------------------------------\n\n\n\t/// @notice Calculates the product of two uint256\n\t/// @dev Used the chinese remainder theoreme\n\t/// @param a A uint256 representing the first factor.\n\t/// @param b A uint256 representing the second factor.\n\t/// @return r0 The result as an uint512. r0 contains the lower bits.\n\t/// @return r1 The higher bits of the result.\n\tfunction mul256x256(uint256 a, uint256 b) \n\tpublic pure  returns (uint256 r0, uint256 r1) {\n\t\tassembly {\n\t\t\tlet mm := mulmod(a, b, not(0))\n\t\t\tr0 := mul(a, b)\n\t\t\tr1 := sub(sub(mm, r0), lt(mm, r0))\n\t\t}\n\t}\n\n\n\n\t/// @notice Calculates the product of two uint512 and uint256\n\t/// @dev Used the chinese remainder theoreme\n\t/// @param a0 A uint256 representing lower bits of the first factor.\n\t/// @param a1 A uint256 representing higher bits of the first factor.\n\t/// @param b A uint256 representing the second factor.\n\t/// @return r0 The result as an uint512. r0 contains the lower bits.\n\t/// @return r1 The higher bits of the result.\n\tfunction mul512x256(uint256 a0, uint256 a1, uint256 b) \n\tpublic pure  returns (uint256 r0, uint256 r1) {\n\t\tassembly {\n\t\t\tlet mm := mulmod(a0, b, not(0))\n\t\t\tr0 := mul(a0, b)\n\t\t\tr1 := sub(sub(mm, r0), lt(mm, r0))\n\t\t\tr1 := add(r1, mul(a1, b))\n\t\t}\n\t}\n\n\n\n\n\t// /// @notice Calculates the product of two uint512 and uint256\n\t// /// @dev Used the chinese remainder theoreme\n\t// /// @param a0 A uint256 representing lower bits of the first factor.\n\t// /// @param a1 A uint256 representing higher bits of the first factor.\n\t// /// @param b A uint256 representing the second factor.\n\t// /// @return r0 The result is 3 uint256. r0 contains the lower bits.\n\t// /// @return r1 The middle bits of the result.\n\t// /// @return r2 The higher bits of the result.\n\t// function mul512x256res768(uint256 a0, uint256 a1, uint256 b) public pure  returns (uint256 r0, uint256 r1, uint256 r2) {\n\t// \tassembly {\n\t// \t\tlet mm := mulmod(a0, b, not(0))\n\t// \t\tr0 := mul(a0, b)\n\t// \t\tr1 := sub(sub(mm, r0), lt(mm, r0))\n\t// \t\tr1 := add(r1, mul(a1, b))\n\t// \t}\n\t// }\n\n\n\n\n\t/// @notice Calculates the product and remainder of two uint256\n\t/// @dev Used the chinese remainder theoreme\n\t/// @param a A uint256 representing the first factor.\n\t/// @param b A uint256 representing the second factor.\n\t/// @return r0 The result as an uint512. r0 contains the lower bits.\n\t/// @return r1 The higher bits of the result.\n\t/// @return r2 The remainder.\n\tfunction mulMod256x256(uint256 a, uint256 b, uint256 c) \n\tpublic pure  returns (uint256 r0, uint256 r1, uint256 r2) {\n\t\tassembly {\n\t\t\tlet mm := mulmod(a, b, not(0))\n\t\t\tr0 := mul(a, b)\n\t\t\tr1 := sub(sub(mm, r0), lt(mm, r0))\n\t\t\tr2 := mulmod(a, b, c)\n\t\t}\n\t}\n\n\n\n\t/// @notice Calculates the difference of two uint512\n\t/// @param a0 A uint256 representing the lower bits of the first addend.\n\t/// @param a1 A uint256 representing the higher bits of the first addend.\n\t/// @param b0 A uint256 representing the lower bits of the seccond addend.\n\t/// @param b1 A uint256 representing the higher bits of the seccond addend.\n\t/// @return r0 The result as an uint512. r0 contains the lower bits.\n\t/// @return r1 The higher bits of the result.\n\tfunction add512x512(uint256 a0, uint256 a1, uint256 b0, uint256 b1) \n\tpublic pure returns (uint256 r0, uint256 r1) {\n\t\tassembly {\n\t\t\tr0 := add(a0, b0)\n\t\t\tr1 := add(add(a1, b1), lt(r0, a0))\n\t\t}\n\t}\n\n\n\n\t/// @notice Calculates the difference of two uint512\n\t/// @param a0 A uint256 representing the lower bits of the minuend.\n\t/// @param a1 A uint256 representing the higher bits of the minuend.\n\t/// @param b0 A uint256 representing the lower bits of the subtrahend.\n\t/// @param b1 A uint256 representing the higher bits of the subtrahend.\n\t/// @return r0 The result as an uint512. r0 contains the lower bits.\n\t/// @return r1 The higher bits of the result.\n\tfunction sub512x512(uint256 a0, uint256 a1, uint256 b0, uint256 b1) \n\tpublic pure returns (uint256 r0, uint256 r1) {\n\t\tassembly {\n\t\t\tr0 := sub(a0, b0)\n\t\t\tr1 := sub(sub(a1, b1), lt(a0, b0))\n\t\t}\n\t}\n\n\n\n\t/// @notice Calculates the division of a 512 bit unsigned integer by a 256 bit integer. It \n\t/// requires the remainder to be known and the result must fit in a 256 bit integer. \n\t/// @dev For a detailed explaination see:  \n\t/// https://www.researchgate.net/public pureation/235765881_Efficient_long_division_via_Montgomery_multiply.\n\t/// @param a0 A uint256 representing the low bits of the nominator.\n\t/// @param a1 A uint256 representing the high bits of the nominator.\n\t/// @param b A uint256 representing the denominator.\n\t/// @param rem A uint256 representing the remainder of the devision. The algorithm is cheaper to compute if the remainder is known. The remainder often be retreived cheaply using the mulmod and addmod operations.\n\t/// @return r The result as an uint256. Result must have at most 256 bit.\n\tfunction divRem512x256(uint256 a0, uint256 a1, uint256 b, uint256 rem) \n\tpublic pure  returns (uint256 r) {\n\t\tassembly {\n\t\t\t// subtract the remainder\n\t\t\ta1 := sub(a1, lt(a0, rem))\n\t\t\ta0 := sub(a0, rem)\n\n\t\t\t// The integer space mod 2**256 is not an abilian group on the multiplication operation. In fact the\n\t\t\t// multiplicative inserve only exists for odd numbers. The denominator gets shifted right until the\n\t\t\t// least significant bit is 1. To do this we find the biggest power of 2 that devides the denominator.\n            let pow := and(sub(0, b), b)\n            b := div(b, pow)\n\n            // Also shift the nominator. We only shift a0 and the lower bits of a1 which are transfered into a0\n\t\t\t// by the shift operation. a1 no longer required for the calculation. This might sound odd, but in\n\t\t\t// fact under the conditions that r < 2**255 and a / b = (r * a) + rem with rem = 0 the value of a1\n\t\t\t// is uniquely identified. Thus the value is not needed for the calculation.\n            a0 := div(a0, pow)\n            pow := add(div(sub(0, pow), pow), 1)\n            a0 := or(a0, mul(a1, pow))\n\t\t}\n\n\n\t\t// if a1 is zero after the shifting, a single word division is sufficient\n\t\tif (a1 == 0) return a0 / b;\n\n\t\tassembly {\n\t\t\t// Calculate the multiplicative inverse mod 2**256 of b. See the paper for details.\n            let inv := xor(mul(3, b), 2)\n            inv := mul(inv, sub(2, mul(b, inv)))\n            inv := mul(inv, sub(2, mul(b, inv)))\n            inv := mul(inv, sub(2, mul(b, inv)))\n            inv := mul(inv, sub(2, mul(b, inv)))\n            inv := mul(inv, sub(2, mul(b, inv)))\n            inv := mul(inv, sub(2, mul(b, inv)))\n\n            r := mul(a0, inv)\n\t\t}\n\t}\n\n\n\n\t/// @notice Calculates the division of a 512 bit unsigned integer by a 256 bit integer. It \n\t/// requires the result to fit in a 256 bit integer. \n\t/// @dev For a detailed explaination see:  \n\t/// https://www.researchgate.net/public pureation/235765881_Efficient_long_division_via_Montgomery_multiply.\n\t/// @param a0 A uint256 representing the low bits of the nominator.\n\t/// @param a1 A uint256 representing the high bits of the nominator.\n\t/// @param b A uint256 representing the denominator.\n\t/// @return r The result as an uint256. Result must have at most 256 bit.\n\tfunction div512x256(uint256 a0, uint256 a1, uint256 b) \n\tpublic pure  returns (uint256 r, uint256 rem) {\n\t\tassembly {\n\t\t\t// calculate the remainder\n\t\t\trem := mulmod(a1, not(0), b)\n\t\t\trem := addmod(rem, a1, b)\n\t\t\trem := addmod(rem, a0, b)\n\n\t\t\t// subtract the remainder\n\t\t\ta1 := sub(a1, lt(a0, rem))\n\t\t\ta0 := sub(a0, rem)\n\n\t\t\t// The integer space mod 2**256 is not an abilian group on the multiplication operation. In fact the\n\t\t\t// multiplicative inserve only exists for odd numbers. The denominator gets shifted right until the\n\t\t\t// least significant bit is 1. To do this we find the biggest power of 2 that devides the denominator.\n            let pow := and(sub(0, b), b)\n            b := div(b, pow)\n\n            // Also shift the nominator. We only shift a0 and the lower bits of a1 which are transfered into a0\n\t\t\t// by the shift operation. a1 no longer required for the calculation. This might sound odd, but in\n\t\t\t// fact under the conditions that r < 2**255 and a / b = (r * a) + rem with rem = 0 the value of a1\n\t\t\t// is uniquely identified. Thus the value is not needed for the calculation.\n            a0 := div(a0, pow)\n            pow := add(div(sub(0, pow), pow), 1)\n            a0 := or(a0, mul(a1, pow))\n\t\t}\n\n\t\t// if a1 is zero after the shifting, a single word division is sufficient\n\t\tif (a1 == 0) return (a0 / b, rem);\n\n\t\tassembly {\n\t\t\t// Calculate the multiplicative inverse mod 2**256 of b. See the paper for details.\n            let inv := xor(mul(3, b), 2)\n            inv := mul(inv, sub(2, mul(b, inv)))\n            inv := mul(inv, sub(2, mul(b, inv)))\n            inv := mul(inv, sub(2, mul(b, inv)))\n            inv := mul(inv, sub(2, mul(b, inv)))\n            inv := mul(inv, sub(2, mul(b, inv)))\n            inv := mul(inv, sub(2, mul(b, inv)))\n\n            r := mul(a0, inv)\n\t\t}\n\t}\n\n\n\t// left shift a << n\n\tfunction lshift512(uint256 a0, uint256 a1, uint256 n) \n\tpublic pure  returns (uint256 r0, uint256 r1) {\n\t\tassembly {\n\t\t\t\tlet sh := shr(sub(256, n), a0)\n\t\t\t\tr1 := add(shl(n, a1),  sh)\n\t\t\t\tr0 := shl(n, a0)\n\t\t}\n\t}\n\n\n\t// todo: n > 2^256\n\t// left shift a << n\n\tfunction rshift512(uint256 a0, uint256 a1, uint256 n) \n\tpublic pure  returns (uint256 r0, uint256 r1) {\n\t\tassembly {\n\t\t\tlet sh := shl(sub(256, n), a1)\n\t\t\tr0 := add(shr(n, a0),  sh)\n\t\t\tr1 := shr(n, a1)\n\t\t}\n\t}\n\n\n\n\tfunction bytes_to_uint512(bytes memory data) \n    public pure  returns(uint256 m0, uint256 m1) {\n        (m1, m0) = abi.decode(data, (uint256, uint256));\n    }\n\n\n\n    function uint512_to_bytes(uint256 m0, uint256 m1) \n    public pure  returns(bytes memory) {\n        return abi.encode(m1, m0);\n    }\n\n\n\t// function foo(uint256[2] calldata arr) public pure  returns (uint256) {\n\t// \treturn arr.length;\n\t// }\n\n\n\t\n\n\n \n}",
  "sourcePath": "contracts/Uint512.sol",
  "type": "contract"
}